{
  "contractName": "Tax",
  "abi": [
    {
      "inputs": [
        {
          "internalType": "address",
          "name": "mas",
          "type": "address"
        }
      ],
      "payable": false,
      "stateMutability": "nonpayable",
      "type": "constructor"
    },
    {
      "constant": true,
      "inputs": [],
      "name": "deptCount",
      "outputs": [
        {
          "internalType": "uint256",
          "name": "",
          "type": "uint256"
        }
      ],
      "payable": false,
      "stateMutability": "view",
      "type": "function"
    },
    {
      "constant": true,
      "inputs": [
        {
          "internalType": "address",
          "name": "",
          "type": "address"
        }
      ],
      "name": "deptbyaddr",
      "outputs": [
        {
          "internalType": "string",
          "name": "deptname",
          "type": "string"
        },
        {
          "internalType": "uint256",
          "name": "id",
          "type": "uint256"
        },
        {
          "internalType": "uint256",
          "name": "proCount",
          "type": "uint256"
        },
        {
          "internalType": "address payable",
          "name": "mgrAddr",
          "type": "address"
        }
      ],
      "payable": false,
      "stateMutability": "view",
      "type": "function"
    },
    {
      "constant": true,
      "inputs": [
        {
          "internalType": "uint256",
          "name": "",
          "type": "uint256"
        }
      ],
      "name": "deptbyuint",
      "outputs": [
        {
          "internalType": "string",
          "name": "deptname",
          "type": "string"
        },
        {
          "internalType": "uint256",
          "name": "id",
          "type": "uint256"
        },
        {
          "internalType": "uint256",
          "name": "proCount",
          "type": "uint256"
        },
        {
          "internalType": "address payable",
          "name": "mgrAddr",
          "type": "address"
        }
      ],
      "payable": false,
      "stateMutability": "view",
      "type": "function"
    },
    {
      "constant": true,
      "inputs": [],
      "name": "master",
      "outputs": [
        {
          "internalType": "address",
          "name": "",
          "type": "address"
        }
      ],
      "payable": false,
      "stateMutability": "view",
      "type": "function"
    },
    {
      "constant": true,
      "inputs": [],
      "name": "payerCount",
      "outputs": [
        {
          "internalType": "uint256",
          "name": "",
          "type": "uint256"
        }
      ],
      "payable": false,
      "stateMutability": "view",
      "type": "function"
    },
    {
      "constant": true,
      "inputs": [
        {
          "internalType": "address",
          "name": "",
          "type": "address"
        }
      ],
      "name": "payerbyaddr",
      "outputs": [
        {
          "internalType": "uint256",
          "name": "id",
          "type": "uint256"
        },
        {
          "internalType": "string",
          "name": "name",
          "type": "string"
        },
        {
          "internalType": "uint256",
          "name": "tax",
          "type": "uint256"
        },
        {
          "internalType": "uint256",
          "name": "salary",
          "type": "uint256"
        },
        {
          "internalType": "address",
          "name": "PayerAddr",
          "type": "address"
        }
      ],
      "payable": false,
      "stateMutability": "view",
      "type": "function"
    },
    {
      "constant": true,
      "inputs": [
        {
          "internalType": "uint256",
          "name": "",
          "type": "uint256"
        }
      ],
      "name": "payers",
      "outputs": [
        {
          "internalType": "uint256",
          "name": "id",
          "type": "uint256"
        },
        {
          "internalType": "string",
          "name": "name",
          "type": "string"
        },
        {
          "internalType": "uint256",
          "name": "tax",
          "type": "uint256"
        },
        {
          "internalType": "uint256",
          "name": "salary",
          "type": "uint256"
        },
        {
          "internalType": "address",
          "name": "PayerAddr",
          "type": "address"
        }
      ],
      "payable": false,
      "stateMutability": "view",
      "type": "function"
    },
    {
      "constant": false,
      "inputs": [
        {
          "internalType": "string",
          "name": "hash",
          "type": "string"
        }
      ],
      "name": "sethash",
      "outputs": [],
      "payable": false,
      "stateMutability": "nonpayable",
      "type": "function"
    },
    {
      "constant": true,
      "inputs": [],
      "name": "gethash",
      "outputs": [
        {
          "internalType": "string",
          "name": "",
          "type": "string"
        }
      ],
      "payable": false,
      "stateMutability": "view",
      "type": "function"
    },
    {
      "constant": true,
      "inputs": [
        {
          "internalType": "address",
          "name": "_PayerAddr",
          "type": "address"
        }
      ],
      "name": "getPayer",
      "outputs": [
        {
          "components": [
            {
              "internalType": "uint256",
              "name": "id",
              "type": "uint256"
            },
            {
              "internalType": "string",
              "name": "name",
              "type": "string"
            },
            {
              "internalType": "uint256",
              "name": "tax",
              "type": "uint256"
            },
            {
              "internalType": "uint256",
              "name": "salary",
              "type": "uint256"
            },
            {
              "internalType": "address",
              "name": "PayerAddr",
              "type": "address"
            }
          ],
          "internalType": "struct Tax.Payer",
          "name": "",
          "type": "tuple"
        }
      ],
      "payable": false,
      "stateMutability": "view",
      "type": "function"
    },
    {
      "constant": false,
      "inputs": [
        {
          "internalType": "string",
          "name": "name",
          "type": "string"
        },
        {
          "internalType": "uint256",
          "name": "_salary",
          "type": "uint256"
        }
      ],
      "name": "addPayer",
      "outputs": [],
      "payable": false,
      "stateMutability": "nonpayable",
      "type": "function"
    },
    {
      "constant": false,
      "inputs": [],
      "name": "payTax",
      "outputs": [],
      "payable": true,
      "stateMutability": "payable",
      "type": "function"
    },
    {
      "constant": true,
      "inputs": [],
      "name": "getSummary",
      "outputs": [
        {
          "internalType": "uint256",
          "name": "",
          "type": "uint256"
        }
      ],
      "payable": false,
      "stateMutability": "view",
      "type": "function"
    },
    {
      "constant": true,
      "inputs": [
        {
          "internalType": "address",
          "name": "mgrAddr",
          "type": "address"
        }
      ],
      "name": "getHead",
      "outputs": [
        {
          "internalType": "uint256",
          "name": "",
          "type": "uint256"
        },
        {
          "internalType": "string",
          "name": "",
          "type": "string"
        }
      ],
      "payable": false,
      "stateMutability": "view",
      "type": "function"
    },
    {
      "constant": true,
      "inputs": [
        {
          "internalType": "uint256",
          "name": "deptno",
          "type": "uint256"
        }
      ],
      "name": "getdept",
      "outputs": [
        {
          "internalType": "uint256",
          "name": "",
          "type": "uint256"
        },
        {
          "internalType": "string",
          "name": "",
          "type": "string"
        }
      ],
      "payable": false,
      "stateMutability": "view",
      "type": "function"
    },
    {
      "constant": true,
      "inputs": [
        {
          "internalType": "uint256",
          "name": "deptno",
          "type": "uint256"
        },
        {
          "internalType": "uint256",
          "name": "pronum",
          "type": "uint256"
        }
      ],
      "name": "getProject",
      "outputs": [
        {
          "internalType": "string",
          "name": "",
          "type": "string"
        },
        {
          "internalType": "uint256",
          "name": "",
          "type": "uint256"
        }
      ],
      "payable": false,
      "stateMutability": "view",
      "type": "function"
    },
    {
      "constant": true,
      "inputs": [
        {
          "internalType": "uint256",
          "name": "deptno",
          "type": "uint256"
        },
        {
          "internalType": "uint256",
          "name": "prono",
          "type": "uint256"
        },
        {
          "internalType": "uint256",
          "name": "reqno",
          "type": "uint256"
        }
      ],
      "name": "getRequest",
      "outputs": [
        {
          "internalType": "string",
          "name": "",
          "type": "string"
        },
        {
          "internalType": "string",
          "name": "",
          "type": "string"
        },
        {
          "internalType": "uint256",
          "name": "",
          "type": "uint256"
        },
        {
          "internalType": "uint256",
          "name": "",
          "type": "uint256"
        },
        {
          "internalType": "bool",
          "name": "",
          "type": "bool"
        }
      ],
      "payable": false,
      "stateMutability": "view",
      "type": "function"
    },
    {
      "constant": true,
      "inputs": [
        {
          "internalType": "uint256",
          "name": "deptno",
          "type": "uint256"
        }
      ],
      "name": "getProcount",
      "outputs": [
        {
          "internalType": "uint256",
          "name": "",
          "type": "uint256"
        }
      ],
      "payable": false,
      "stateMutability": "view",
      "type": "function"
    },
    {
      "constant": true,
      "inputs": [],
      "name": "getDeptcount",
      "outputs": [
        {
          "internalType": "uint256",
          "name": "",
          "type": "uint256"
        }
      ],
      "payable": false,
      "stateMutability": "view",
      "type": "function"
    },
    {
      "constant": true,
      "inputs": [
        {
          "internalType": "uint256",
          "name": "deptno",
          "type": "uint256"
        },
        {
          "internalType": "uint256",
          "name": "prono",
          "type": "uint256"
        }
      ],
      "name": "getReqCount",
      "outputs": [
        {
          "internalType": "uint256",
          "name": "",
          "type": "uint256"
        }
      ],
      "payable": false,
      "stateMutability": "view",
      "type": "function"
    },
    {
      "constant": false,
      "inputs": [
        {
          "internalType": "string",
          "name": "deptname",
          "type": "string"
        }
      ],
      "name": "addDept",
      "outputs": [],
      "payable": false,
      "stateMutability": "nonpayable",
      "type": "function"
    },
    {
      "constant": false,
      "inputs": [
        {
          "internalType": "string",
          "name": "proname",
          "type": "string"
        },
        {
          "internalType": "uint256",
          "name": "deptno",
          "type": "uint256"
        }
      ],
      "name": "createProject",
      "outputs": [],
      "payable": false,
      "stateMutability": "nonpayable",
      "type": "function"
    },
    {
      "constant": false,
      "inputs": [
        {
          "internalType": "uint256",
          "name": "deptno",
          "type": "uint256"
        },
        {
          "internalType": "uint256",
          "name": "prono",
          "type": "uint256"
        },
        {
          "internalType": "uint256",
          "name": "reqno",
          "type": "uint256"
        }
      ],
      "name": "voteforPro",
      "outputs": [],
      "payable": false,
      "stateMutability": "nonpayable",
      "type": "function"
    },
    {
      "constant": false,
      "inputs": [
        {
          "internalType": "uint256",
          "name": "deptno",
          "type": "uint256"
        },
        {
          "internalType": "uint256",
          "name": "prono",
          "type": "uint256"
        },
        {
          "internalType": "uint256",
          "name": "reqno",
          "type": "uint256"
        }
      ],
      "name": "grantFund",
      "outputs": [
        {
          "internalType": "bool",
          "name": "",
          "type": "bool"
        }
      ],
      "payable": false,
      "stateMutability": "nonpayable",
      "type": "function"
    },
    {
      "constant": false,
      "inputs": [
        {
          "internalType": "uint256",
          "name": "deptno",
          "type": "uint256"
        },
        {
          "internalType": "uint256",
          "name": "prono",
          "type": "uint256"
        },
        {
          "internalType": "uint256",
          "name": "money",
          "type": "uint256"
        },
        {
          "internalType": "string",
          "name": "title",
          "type": "string"
        },
        {
          "internalType": "string",
          "name": "desc",
          "type": "string"
        }
      ],
      "name": "requestFund",
      "outputs": [],
      "payable": false,
      "stateMutability": "nonpayable",
      "type": "function"
    }
  ],
  "bytecode": "0x60806040523480156200001157600080fd5b5060405162002d5d38038062002d5d833981810160405262000037919081019062000096565b80600460006101000a81548173ffffffffffffffffffffffffffffffffffffffff021916908373ffffffffffffffffffffffffffffffffffffffff1602179055505062000110565b6000815190506200009081620000f6565b92915050565b600060208284031215620000a957600080fd5b6000620000b9848285016200007f565b91505092915050565b6000620000cf82620000d6565b9050919050565b600073ffffffffffffffffffffffffffffffffffffffff82169050919050565b6200010181620000c2565b81146200010d57600080fd5b50565b612c3d80620001206000396000f3fe6080604052600436106101665760003560e01c8063757a602a116100d1578063aefae9a01161008a578063bbfa3d4a11610064578063bbfa3d4a1461058c578063df3eaebe146105ca578063ee97f7f3146105f5578063f4a605d51461062057610166565b8063aefae9a0146104e9578063b63d194f14610526578063b6477df41461054f57610166565b8063757a602a146103db57806391754a5d146104045780639e2755f91461042d578063a1d318c414610456578063a8a73eef14610481578063adda6621146104be57610166565b80634051ddac116101235780634051ddac1461028b57806349df9464146102b65780635b093256146102f45780636325a11c146103315780636802c7ad146103715780636ff4c92f146103b257610166565b8063021ae8d31461016b5780631538736c146101ac5780632912ba5f146101ec578063370d3f9a146101f65780633ab51484146102215780633ccfbd031461024a575b600080fd5b34801561017757600080fd5b50610192600480360361018d91908101906124a1565b61065e565b6040516101a395949392919061286a565b60405180910390f35b3480156101b857600080fd5b506101d360048036036101ce919081019061243c565b610816565b6040516101e394939291906128fb565b60405180910390f35b6101f46108fe565b005b34801561020257600080fd5b5061020b610c97565b60405161021891906129e9565b60405180910390f35b34801561022d57600080fd5b50610248600480360361024391908101906124f0565b610c9d565b005b34801561025657600080fd5b50610271600480360361026c919081019061243c565b610de2565b604051610282959493929190612a34565b60405180910390f35b34801561029757600080fd5b506102a0610ed0565b6040516102ad91906129e9565b60405180910390f35b3480156102c257600080fd5b506102dd60048036036102d89190810190612465565b610ed8565b6040516102eb9291906128cb565b60405180910390f35b34801561030057600080fd5b5061031b6004803603610316919081019061243c565b610fb7565b60405161032891906129e9565b60405180910390f35b34801561033d57600080fd5b506103586004803603610353919081019061237e565b610fd7565b60405161036894939291906128fb565b60405180910390f35b34801561037d57600080fd5b506103986004803603610393919081019061237e565b6110bf565b6040516103a9959493929190612a34565b60405180910390f35b3480156103be57600080fd5b506103d960048036036103d491908101906123a7565b6111ad565b005b3480156103e757600080fd5b5061040260048036036103fd91908101906124a1565b6112e8565b005b34801561041057600080fd5b5061042b600480360361042691908101906123e8565b61160f565b005b34801561043957600080fd5b50610454600480360361044f91908101906123e8565b6116f3565b005b34801561046257600080fd5b5061046b611a98565b60405161047891906129e9565b60405180910390f35b34801561048d57600080fd5b506104a860048036036104a3919081019061237e565b611aa2565b6040516104b591906129c7565b60405180910390f35b3480156104ca57600080fd5b506104d3611c11565b6040516104e091906129e9565b60405180910390f35b3480156104f557600080fd5b50610510600480360361050b91908101906124a1565b611c17565b60405161051d919061282d565b60405180910390f35b34801561053257600080fd5b5061054d600480360361054891908101906123a7565b611ebf565b005b34801561055b57600080fd5b5061057660048036036105719190810190612465565b611ed9565b60405161058391906129e9565b60405180910390f35b34801561059857600080fd5b506105b360048036036105ae919081019061237e565b611f0e565b6040516105c1929190612a04565b60405180910390f35b3480156105d657600080fd5b506105df612004565b6040516105ec9190612848565b60405180910390f35b34801561060157600080fd5b5061060a6120a6565b6040516106179190612812565b60405180910390f35b34801561062c57600080fd5b506106476004803603610642919081019061243c565b6120cc565b604051610655929190612a04565b60405180910390f35b606080600080600080600660008a81526020019081526020016000206004016000898152602001908152602001600020600501600088815260200190815260200160002090508060000181600101826004015483600301548460050160009054906101000a900460ff16848054600181600116156101000203166002900480601f01602080910402602001604051908101604052809291908181526020018280546001816001161561010002031660029004801561075d5780601f106107325761010080835404028352916020019161075d565b820191906000526020600020905b81548152906001019060200180831161074057829003601f168201915b50505050509450838054600181600116156101000203166002900480601f0160208091040260200160405190810160405280929190818152602001828054600181600116156101000203166002900480156107f95780601f106107ce576101008083540402835291602001916107f9565b820191906000526020600020905b8154815290600101906020018083116107dc57829003601f168201915b505050505093509550955095509550955050939792965093509350565b6006602052806000526040600020600091509050806000018054600181600116156101000203166002900480601f0160208091040260200160405190810160405280929190818152602001828054600181600116156101000203166002900480156108c25780601f10610897576101008083540402835291602001916108c2565b820191906000526020600020905b8154815290600101906020018083116108a557829003601f168201915b5050505050908060010154908060020154908060030160009054906101000a900473ffffffffffffffffffffffffffffffffffffffff16905084565b600134101561090c57600080fd5b610914612196565b600160003373ffffffffffffffffffffffffffffffffffffffff1673ffffffffffffffffffffffffffffffffffffffff1681526020019081526020016000206040518060a001604052908160008201548152602001600182018054600181600116156101000203166002900480601f016020809104026020016040519081016040528092919081815260200182805460018160011615610100020316600290048015610a015780601f106109d657610100808354040283529160200191610a01565b820191906000526020600020905b8154815290600101906020018083116109e457829003601f168201915b5050505050815260200160028201548152602001600382015481526020016004820160009054906101000a900473ffffffffffffffffffffffffffffffffffffffff1673ffffffffffffffffffffffffffffffffffffffff1673ffffffffffffffffffffffffffffffffffffffff168152505090503373ffffffffffffffffffffffffffffffffffffffff16816080015173ffffffffffffffffffffffffffffffffffffffff1614610ab257600080fd5b34600160003373ffffffffffffffffffffffffffffffffffffffff1673ffffffffffffffffffffffffffffffffffffffff16815260200190815260200160002060020160008282540192505081905550610b0a612196565b600160003373ffffffffffffffffffffffffffffffffffffffff1673ffffffffffffffffffffffffffffffffffffffff1681526020019081526020016000206040518060a001604052908160008201548152602001600182018054600181600116156101000203166002900480601f016020809104026020016040519081016040528092919081815260200182805460018160011615610100020316600290048015610bf75780601f10610bcc57610100808354040283529160200191610bf7565b820191906000526020600020905b815481529060010190602001808311610bda57829003601f168201915b5050505050815260200160028201548152602001600382015481526020016004820160009054906101000a900473ffffffffffffffffffffffffffffffffffffffff1673ffffffffffffffffffffffffffffffffffffffff1673ffffffffffffffffffffffffffffffffffffffff168152505090503460008083600001518152602001908152602001600020600201600082825401925050819055505050565b60055481565b843373ffffffffffffffffffffffffffffffffffffffff166006600083815260200190815260200160002060030160009054906101000a900473ffffffffffffffffffffffffffffffffffffffff1673ffffffffffffffffffffffffffffffffffffffff1614610d0c57600080fd5b60006006600088815260200190815260200160002060040160008781526020019081526020016000206005016000600660008a81526020019081526020016000206004016000898152602001908152602001600020600401600081546001019190508190558152602001908152602001600020905083816000019080519060200190610d999291906121db565b5082816001019080519060200190610db29291906121db565b5084816004018190555060008160050160006101000a81548160ff02191690831515021790555050505050505050565b6000602052806000526040600020600091509050806000015490806001018054600181600116156101000203166002900480601f016020809104026020016040519081016040528092919081815260200182805460018160011615610100020316600290048015610e945780601f10610e6957610100808354040283529160200191610e94565b820191906000526020600020905b815481529060010190602001808311610e7757829003601f168201915b5050505050908060020154908060030154908060040160009054906101000a900473ffffffffffffffffffffffffffffffffffffffff16905085565b600047905090565b60606000806006600086815260200190815260200160002060040160008581526020019081526020016000209050806001018160040154818054600181600116156101000203166002900480601f016020809104026020016040519081016040528092919081815260200182805460018160011615610100020316600290048015610fa45780601f10610f7957610100808354040283529160200191610fa4565b820191906000526020600020905b815481529060010190602001808311610f8757829003601f168201915b5050505050915092509250509250929050565b600060066000838152602001908152602001600020600201549050919050565b6007602052806000526040600020600091509050806000018054600181600116156101000203166002900480601f0160208091040260200160405190810160405280929190818152602001828054600181600116156101000203166002900480156110835780601f1061105857610100808354040283529160200191611083565b820191906000526020600020905b81548152906001019060200180831161106657829003601f168201915b5050505050908060010154908060020154908060030160009054906101000a900473ffffffffffffffffffffffffffffffffffffffff16905084565b6001602052806000526040600020600091509050806000015490806001018054600181600116156101000203166002900480601f0160208091040260200160405190810160405280929190818152602001828054600181600116156101000203166002900480156111715780601f1061114657610100808354040283529160200191611171565b820191906000526020600020905b81548152906001019060200180831161115457829003601f168201915b5050505050908060020154908060030154908060040160009054906101000a900473ffffffffffffffffffffffffffffffffffffffff16905085565b60006006600060056000815460010191905081905581526020019081526020016000209050338160030160006101000a81548173ffffffffffffffffffffffffffffffffffffffff021916908373ffffffffffffffffffffffffffffffffffffffff1602179055508181600001908051906020019061122d9291906121db565b5060055481600101819055506000600760003373ffffffffffffffffffffffffffffffffffffffff1673ffffffffffffffffffffffffffffffffffffffff1681526020019081526020016000209050338160030160006101000a81548173ffffffffffffffffffffffffffffffffffffffff021916908373ffffffffffffffffffffffffffffffffffffffff160217905550828160000190805190602001906112d79291906121db565b506005548160010181905550505050565b6112f0612196565b600160003373ffffffffffffffffffffffffffffffffffffffff1673ffffffffffffffffffffffffffffffffffffffff1681526020019081526020016000206040518060a001604052908160008201548152602001600182018054600181600116156101000203166002900480601f0160208091040260200160405190810160405280929190818152602001828054600181600116156101000203166002900480156113dd5780601f106113b2576101008083540402835291602001916113dd565b820191906000526020600020905b8154815290600101906020018083116113c057829003601f168201915b5050505050815260200160028201548152602001600382015481526020016004820160009054906101000a900473ffffffffffffffffffffffffffffffffffffffff1673ffffffffffffffffffffffffffffffffffffffff1673ffffffffffffffffffffffffffffffffffffffff168152505090503373ffffffffffffffffffffffffffffffffffffffff16816080015173ffffffffffffffffffffffffffffffffffffffff161461148e57600080fd5b60001515600660008681526020019081526020016000206004016000858152602001908152602001600020600501600084815260200190815260200160002060020160003373ffffffffffffffffffffffffffffffffffffffff1673ffffffffffffffffffffffffffffffffffffffff16815260200190815260200160002060009054906101000a900460ff1615151461152757600080fd5b6001600660008681526020019081526020016000206004016000858152602001908152602001600020600501600084815260200190815260200160002060020160003373ffffffffffffffffffffffffffffffffffffffff1673ffffffffffffffffffffffffffffffffffffffff16815260200190815260200160002060006101000a81548160ff02191690831515021790555060066000858152602001908152602001600020600401600084815260200190815260200160002060050160008381526020019081526020016000206003016000815480929190600101919050555050505050565b803373ffffffffffffffffffffffffffffffffffffffff166006600083815260200190815260200160002060030160009054906101000a900473ffffffffffffffffffffffffffffffffffffffff1673ffffffffffffffffffffffffffffffffffffffff161461167e57600080fd5b6000600660008481526020019081526020016000206004016000600660008681526020019081526020016000206002016000815460010191905081905581526020019081526020016000209050828160000181905550838160010190805190602001906116ec9291906121db565b5050505050565b6116fb612196565b600160003373ffffffffffffffffffffffffffffffffffffffff1673ffffffffffffffffffffffffffffffffffffffff1681526020019081526020016000206040518060a001604052908160008201548152602001600182018054600181600116156101000203166002900480601f0160208091040260200160405190810160405280929190818152602001828054600181600116156101000203166002900480156117e85780601f106117bd576101008083540402835291602001916117e8565b820191906000526020600020905b8154815290600101906020018083116117cb57829003601f168201915b5050505050815260200160028201548152602001600382015481526020016004820160009054906101000a900473ffffffffffffffffffffffffffffffffffffffff1673ffffffffffffffffffffffffffffffffffffffff1673ffffffffffffffffffffffffffffffffffffffff1681525050905060008160000151146118a4576040517f08c379a000000000000000000000000000000000000000000000000000000000815260040161189b90612987565b60405180910390fd5b6002600081548092919060010191905055506040518060a001604052806002548152602001848152602001600081526020018381526020013373ffffffffffffffffffffffffffffffffffffffff16815250600080600254815260200190815260200160002060008201518160000155602082015181600101908051906020019061193092919061225b565b50604082015181600201556060820151816003015560808201518160040160006101000a81548173ffffffffffffffffffffffffffffffffffffffff021916908373ffffffffffffffffffffffffffffffffffffffff1602179055509050506040518060a001604052806002548152602001848152602001600081526020018381526020013373ffffffffffffffffffffffffffffffffffffffff16815250600160003373ffffffffffffffffffffffffffffffffffffffff1673ffffffffffffffffffffffffffffffffffffffff168152602001908152602001600020600082015181600001556020820151816001019080519060200190611a3492919061225b565b50604082015181600201556060820151816003015560808201518160040160006101000a81548173ffffffffffffffffffffffffffffffffffffffff021916908373ffffffffffffffffffffffffffffffffffffffff160217905550905050505050565b6000600554905090565b611aaa612196565b600160008373ffffffffffffffffffffffffffffffffffffffff1673ffffffffffffffffffffffffffffffffffffffff1681526020019081526020016000206040518060a001604052908160008201548152602001600182018054600181600116156101000203166002900480601f016020809104026020016040519081016040528092919081815260200182805460018160011615610100020316600290048015611b975780601f10611b6c57610100808354040283529160200191611b97565b820191906000526020600020905b815481529060010190602001808311611b7a57829003601f168201915b5050505050815260200160028201548152602001600382015481526020016004820160009054906101000a900473ffffffffffffffffffffffffffffffffffffffff1673ffffffffffffffffffffffffffffffffffffffff1673ffffffffffffffffffffffffffffffffffffffff16815250509050919050565b60025481565b60006002805481611c2457fe5b0460066000868152602001908152602001600020600401600085815260200190815260200160002060050160008481526020019081526020016000206003015411611ca4576040517f08c379a0000000000000000000000000000000000000000000000000000000008152600401611c9b906129a7565b60405180910390fd5b4760066000868152602001908152602001600020600401600085815260200190815260200160002060050160008481526020019081526020016000206004015410611d24576040517f08c379a0000000000000000000000000000000000000000000000000000000008152600401611d1b90612967565b60405180910390fd5b60001515600660008681526020019081526020016000206004016000858152602001908152602001600020600501600084815260200190815260200160002060050160009054906101000a900460ff16151514611db6576040517f08c379a0000000000000000000000000000000000000000000000000000000008152600401611dad90612947565b60405180910390fd5b6001600660008681526020019081526020016000206004016000858152602001908152602001600020600501600084815260200190815260200160002060050160006101000a81548160ff0219169083151502179055506006600085815260200190815260200160002060030160009054906101000a900473ffffffffffffffffffffffffffffffffffffffff1673ffffffffffffffffffffffffffffffffffffffff166108fc6006600087815260200190815260200160002060040160008681526020019081526020016000206005016000858152602001908152602001600020600401549081150290604051600060405180830381858888f1935050505090509392505050565b8060039080519060200190611ed59291906121db565b5050565b600060066000848152602001908152602001600020600401600083815260200190815260200160002060040154905092915050565b600060606000600760008573ffffffffffffffffffffffffffffffffffffffff1673ffffffffffffffffffffffffffffffffffffffff1681526020019081526020016000209050806001015481600001808054600181600116156101000203166002900480601f016020809104026020016040519081016040528092919081815260200182805460018160011615610100020316600290048015611ff35780601f10611fc857610100808354040283529160200191611ff3565b820191906000526020600020905b815481529060010190602001808311611fd657829003601f168201915b505050505090509250925050915091565b606060038054600181600116156101000203166002900480601f01602080910402602001604051908101604052809291908181526020018280546001816001161561010002031660029004801561209c5780601f106120715761010080835404028352916020019161209c565b820191906000526020600020905b81548152906001019060200180831161207f57829003601f168201915b5050505050905090565b600460009054906101000a900473ffffffffffffffffffffffffffffffffffffffff1681565b600060606000600660008581526020019081526020016000209050806001015481600001808054600181600116156101000203166002900480601f0160208091040260200160405190810160405280929190818152602001828054600181600116156101000203166002900480156121855780601f1061215a57610100808354040283529160200191612185565b820191906000526020600020905b81548152906001019060200180831161216857829003601f168201915b505050505090509250925050915091565b6040518060a0016040528060008152602001606081526020016000815260200160008152602001600073ffffffffffffffffffffffffffffffffffffffff1681525090565b828054600181600116156101000203166002900490600052602060002090601f016020900481019282601f1061221c57805160ff191683800117855561224a565b8280016001018555821561224a579182015b8281111561224957825182559160200191906001019061222e565b5b50905061225791906122db565b5090565b828054600181600116156101000203166002900490600052602060002090601f016020900481019282601f1061229c57805160ff19168380011785556122ca565b828001600101855582156122ca579182015b828111156122c95782518255916020019190600101906122ae565b5b5090506122d791906122db565b5090565b6122fd91905b808211156122f95760008160009055506001016122e1565b5090565b90565b60008135905061230f81612bcc565b92915050565b600082601f83011261232657600080fd5b813561233961233482612abb565b612a8e565b9150808252602083016020830185838301111561235557600080fd5b612360838284612b79565b50505092915050565b60008135905061237881612be3565b92915050565b60006020828403121561239057600080fd5b600061239e84828501612300565b91505092915050565b6000602082840312156123b957600080fd5b600082013567ffffffffffffffff8111156123d357600080fd5b6123df84828501612315565b91505092915050565b600080604083850312156123fb57600080fd5b600083013567ffffffffffffffff81111561241557600080fd5b61242185828601612315565b925050602061243285828601612369565b9150509250929050565b60006020828403121561244e57600080fd5b600061245c84828501612369565b91505092915050565b6000806040838503121561247857600080fd5b600061248685828601612369565b925050602061249785828601612369565b9150509250929050565b6000806000606084860312156124b657600080fd5b60006124c486828701612369565b93505060206124d586828701612369565b92505060406124e686828701612369565b9150509250925092565b600080600080600060a0868803121561250857600080fd5b600061251688828901612369565b955050602061252788828901612369565b945050604061253888828901612369565b935050606086013567ffffffffffffffff81111561255557600080fd5b61256188828901612315565b925050608086013567ffffffffffffffff81111561257e57600080fd5b61258a88828901612315565b9150509295509295909350565b6125a081612b31565b82525050565b6125af81612b1f565b82525050565b6125be81612b1f565b82525050565b6125cd81612b43565b82525050565b60006125de82612af2565b6125e88185612b0e565b93506125f8818560208601612b88565b61260181612bbb565b840191505092915050565b600061261782612ae7565b6126218185612afd565b9350612631818560208601612b88565b61263a81612bbb565b840191505092915050565b600061265082612ae7565b61265a8185612b0e565b935061266a818560208601612b88565b61267381612bbb565b840191505092915050565b600061268b600f83612b0e565b91507f416c7265616479204772616e74656400000000000000000000000000000000006000830152602082019050919050565b60006126cb601283612b0e565b91507f4e6f7420656e6f7567682062616c616e636500000000000000000000000000006000830152602082019050919050565b600061270b601283612b0e565b91507f416c7265616479205265676973746572656400000000000000000000000000006000830152602082019050919050565b600061274b601083612b0e565b91507f4e6f7420656e6f75676820566f746573000000000000000000000000000000006000830152602082019050919050565b600060a08301600083015161279660008601826127f4565b50602083015184820360208601526127ae828261260c565b91505060408301516127c360408601826127f4565b5060608301516127d660608601826127f4565b5060808301516127e960808601826125a6565b508091505092915050565b6127fd81612b6f565b82525050565b61280c81612b6f565b82525050565b600060208201905061282760008301846125b5565b92915050565b600060208201905061284260008301846125c4565b92915050565b6000602082019050818103600083015261286281846125d3565b905092915050565b600060a082019050818103600083015261288481886125d3565b9050818103602083015261289881876125d3565b90506128a76040830186612803565b6128b46060830185612803565b6128c160808301846125c4565b9695505050505050565b600060408201905081810360008301526128e581856125d3565b90506128f46020830184612803565b9392505050565b600060808201905081810360008301526129158187612645565b90506129246020830186612803565b6129316040830185612803565b61293e6060830184612597565b95945050505050565b600060208201905081810360008301526129608161267e565b9050919050565b60006020820190508181036000830152612980816126be565b9050919050565b600060208201905081810360008301526129a0816126fe565b9050919050565b600060208201905081810360008301526129c08161273e565b9050919050565b600060208201905081810360008301526129e1818461277e565b905092915050565b60006020820190506129fe6000830184612803565b92915050565b6000604082019050612a196000830185612803565b8181036020830152612a2b81846125d3565b90509392505050565b600060a082019050612a496000830188612803565b8181036020830152612a5b8187612645565b9050612a6a6040830186612803565b612a776060830185612803565b612a8460808301846125b5565b9695505050505050565b6000604051905081810181811067ffffffffffffffff82111715612ab157600080fd5b8060405250919050565b600067ffffffffffffffff821115612ad257600080fd5b601f19601f8301169050602081019050919050565b600081519050919050565b600081519050919050565b600082825260208201905092915050565b600082825260208201905092915050565b6000612b2a82612b4f565b9050919050565b6000612b3c82612b4f565b9050919050565b60008115159050919050565b600073ffffffffffffffffffffffffffffffffffffffff82169050919050565b6000819050919050565b82818337600083830152505050565b60005b83811015612ba6578082015181840152602081019050612b8b565b83811115612bb5576000848401525b50505050565b6000601f19601f8301169050919050565b612bd581612b1f565b8114612be057600080fd5b50565b612bec81612b6f565b8114612bf757600080fd5b5056fea365627a7a72315820ea59ef6ab4f8a7e92679183717a50428ff8261a065370c5746c5f7b8365efd5a6c6578706572696d656e74616cf564736f6c63430005100040",
  "source": "// SPDX-License-Identifier: GPL-3.0\n\npragma solidity >=0.4.17;\npragma experimental ABIEncoderV2;\n\ncontract Tax {\n    //Tax Contract\n\n    struct Payer {\n        uint256 id;\n        string name;\n        uint256 tax;\n        uint256 salary;\n        address PayerAddr;\n    }\n\n    modifier minTax() {\n        require(msg.value >= 1 wei);\n        _;\n    }\n\n    modifier isPayer() {\n        Payer memory p = payerbyaddr[msg.sender];\n        require(p.PayerAddr == msg.sender);\n        _;\n    }\n\n    modifier notPayer() {\n        Payer memory p = payerbyaddr[msg.sender];\n        require(p.id == 0, \"Already Registered\");\n        _;\n    }\n\n    mapping(uint256 => Payer) public payers;\n    mapping(address => Payer) public payerbyaddr;\n    uint256 public payerCount;\n    string acthash;\n\n    function sethash(string memory hash) public {\n        acthash = hash;\n    }\n\n    function gethash() public view returns (string memory) {\n        return acthash;\n    }\n\n    function getPayer(address _PayerAddr) public view returns (Payer memory) {\n        return payerbyaddr[_PayerAddr];\n    }\n\n    function addPayer(string memory name, uint256 _salary) public notPayer {\n        payerCount++;\n        payers[payerCount] = Payer(payerCount, name, 0, _salary, msg.sender);\n        payerbyaddr[msg.sender] = Payer(\n            payerCount,\n            name,\n            0,\n            _salary,\n            msg.sender\n        );\n    }\n\n    function payTax() public payable minTax isPayer {\n        payerbyaddr[msg.sender].tax += msg.value;\n        Payer memory temp = payerbyaddr[msg.sender];\n        payers[temp.id].tax += msg.value;\n    }\n\n    function getSummary() public view returns (uint256) {\n        return address(this).balance;\n    }\n\n    //Project Contract\n\n    address public master;\n\n    struct Department {\n        string deptname;\n        uint256 id;\n        uint256 proCount;\n        address payable mgrAddr;\n        mapping(uint256 => Project) probyuint;\n    }\n\n    struct Project {\n        uint256 deptno;\n        string proname;\n        uint256 grantrec;\n        uint256 grantreq;\n        uint256 reqCount;\n        mapping(uint256 => Request) reqbyuint;\n    }\n\n    struct Request {\n        string title;\n        string desc;\n        mapping(address => bool) voters;\n        uint256 votersCount;\n        uint256 moneyreq;\n        bool granted;\n    }\n\n    uint256 public deptCount;\n    mapping(uint256 => Department) public deptbyuint;\n    mapping(address => Department) public deptbyaddr;\n\n    modifier isMaster() {\n        require(master == msg.sender);\n        _;\n    }\n\n    modifier isHead(uint256 deptno) {\n        require(deptbyuint[deptno].mgrAddr == msg.sender);\n        _;\n    }\n\n    constructor(address mas) public {\n        master = mas;\n    }\n\n    function getHead(address mgrAddr)\n        public\n        view\n        returns (uint256, string memory)\n    {\n        Department storage head = deptbyaddr[mgrAddr];\n        return (head.id, head.deptname);\n    }\n\n    function getdept(uint256 deptno)\n        public\n        view\n        returns (uint256, string memory)\n    {\n        Department storage head = deptbyuint[deptno];\n        return (head.id, head.deptname);\n    }\n\n    function getProject(uint256 deptno, uint256 pronum)\n        public\n        view\n        returns (string memory, uint256)\n    {\n        Project storage pro = deptbyuint[deptno].probyuint[pronum];\n        return (pro.proname, pro.reqCount);\n    }\n\n    function getRequest(\n        uint256 deptno,\n        uint256 prono,\n        uint256 reqno\n    )\n        public\n        view\n        returns (\n            string memory,\n            string memory,\n            uint256,\n            uint256,\n            bool\n        )\n    {\n        Request storage req = deptbyuint[deptno].probyuint[prono].reqbyuint[\n            reqno\n        ];\n        return (\n            req.title,\n            req.desc,\n            req.moneyreq,\n            req.votersCount,\n            req.granted\n        );\n    }\n\n    function getProcount(uint256 deptno) public view returns (uint256) {\n        return deptbyuint[deptno].proCount;\n    }\n\n    function getDeptcount() public view returns (uint256) {\n        return deptCount;\n    }\n\n    function getReqCount(uint256 deptno, uint256 prono)\n        public\n        view\n        returns (uint256)\n    {\n        return deptbyuint[deptno].probyuint[prono].reqCount;\n    }\n\n    function addDept(string memory deptname) public {\n        Department storage newDept = deptbyuint[++deptCount];\n        newDept.mgrAddr = msg.sender;\n        newDept.deptname = deptname;\n        newDept.id = deptCount;\n\n        Department storage newDept2 = deptbyaddr[msg.sender];\n        newDept2.mgrAddr = msg.sender;\n        newDept2.deptname = deptname;\n        newDept2.id = deptCount;\n    }\n\n    function createProject(string memory proname, uint256 deptno)\n        public\n        isHead(deptno)\n    {\n        Project storage newPro = deptbyuint[deptno].probyuint[\n            ++deptbyuint[deptno].proCount\n        ];\n        newPro.deptno = deptno;\n        newPro.proname = proname;\n    }\n\n    function voteforPro(\n        uint256 deptno,\n        uint256 prono,\n        uint256 reqno\n    ) public isPayer {\n        require(\n            deptbyuint[deptno].probyuint[prono].reqbyuint[reqno].voters[\n                msg.sender\n            ] == false\n        );\n        deptbyuint[deptno].probyuint[prono].reqbyuint[reqno].voters[\n            msg.sender\n        ] = true;\n        deptbyuint[deptno].probyuint[prono].reqbyuint[reqno].votersCount++;\n    }\n\n    function grantFund(\n        uint256 deptno,\n        uint256 prono,\n        uint256 reqno\n    ) public returns (bool) {\n        require(\n            deptbyuint[deptno].probyuint[prono].reqbyuint[reqno].votersCount >\n                (payerCount / 2),\n            \"Not enough Votes\"\n        );\n        require(\n            deptbyuint[deptno].probyuint[prono].reqbyuint[reqno].moneyreq <\n                address(this).balance,\n            \"Not enough balance\"\n        );\n        require(\n            deptbyuint[deptno].probyuint[prono].reqbyuint[reqno].granted ==\n                false,\n            \"Already Granted\"\n        );\n        deptbyuint[deptno].probyuint[prono].reqbyuint[reqno].granted = true;\n        return\n            deptbyuint[deptno].mgrAddr.send(\n                deptbyuint[deptno].probyuint[prono].reqbyuint[reqno].moneyreq\n            );\n    }\n\n    function requestFund(\n        uint256 deptno,\n        uint256 prono,\n        uint256 money,\n        string memory title,\n        string memory desc\n    ) public isHead(deptno) {\n        Request storage newReq = deptbyuint[deptno].probyuint[prono].reqbyuint[\n            ++deptbyuint[deptno].probyuint[prono].reqCount\n        ];\n        newReq.title = title;\n        newReq.desc = desc;\n        newReq.moneyreq = money;\n        newReq.granted = false;\n    }\n}\n",
  "sourcePath": "/Users/akshaysp/Projects/Taxonomy/contracts/Tax.sol",
  "compiler": {
    "name": "solc",
    "version": "0.5.16+commit.9c3226ce.Emscripten.clang"
  },
  "schemaVersion": "3.4.3",
  "updatedAt": "2021-11-14T11:39:55.571Z",
  "networkType": "ethereum",
  "devdoc": {
    "methods": {}
  },
  "userdoc": {
    "methods": {}
  }
}