{
  "contractName": "Tax",
  "abi": [
    {
      "inputs": [
        {
          "internalType": "address",
          "name": "mas",
          "type": "address"
        }
      ],
      "payable": false,
      "stateMutability": "nonpayable",
      "type": "constructor"
    },
    {
      "constant": true,
      "inputs": [],
      "name": "deptCount",
      "outputs": [
        {
          "internalType": "uint256",
          "name": "",
          "type": "uint256"
        }
      ],
      "payable": false,
      "stateMutability": "view",
      "type": "function"
    },
    {
      "constant": true,
      "inputs": [
        {
          "internalType": "address",
          "name": "",
          "type": "address"
        }
      ],
      "name": "deptbyaddr",
      "outputs": [
        {
          "internalType": "string",
          "name": "deptname",
          "type": "string"
        },
        {
          "internalType": "uint256",
          "name": "id",
          "type": "uint256"
        },
        {
          "internalType": "uint256",
          "name": "proCount",
          "type": "uint256"
        },
        {
          "internalType": "address payable",
          "name": "mgrAddr",
          "type": "address"
        }
      ],
      "payable": false,
      "stateMutability": "view",
      "type": "function"
    },
    {
      "constant": true,
      "inputs": [
        {
          "internalType": "uint256",
          "name": "",
          "type": "uint256"
        }
      ],
      "name": "deptbyuint",
      "outputs": [
        {
          "internalType": "string",
          "name": "deptname",
          "type": "string"
        },
        {
          "internalType": "uint256",
          "name": "id",
          "type": "uint256"
        },
        {
          "internalType": "uint256",
          "name": "proCount",
          "type": "uint256"
        },
        {
          "internalType": "address payable",
          "name": "mgrAddr",
          "type": "address"
        }
      ],
      "payable": false,
      "stateMutability": "view",
      "type": "function"
    },
    {
      "constant": true,
      "inputs": [],
      "name": "master",
      "outputs": [
        {
          "internalType": "address",
          "name": "",
          "type": "address"
        }
      ],
      "payable": false,
      "stateMutability": "view",
      "type": "function"
    },
    {
      "constant": true,
      "inputs": [],
      "name": "payerCount",
      "outputs": [
        {
          "internalType": "uint256",
          "name": "",
          "type": "uint256"
        }
      ],
      "payable": false,
      "stateMutability": "view",
      "type": "function"
    },
    {
      "constant": true,
      "inputs": [
        {
          "internalType": "address",
          "name": "",
          "type": "address"
        }
      ],
      "name": "payerbyaddr",
      "outputs": [
        {
          "internalType": "uint256",
          "name": "id",
          "type": "uint256"
        },
        {
          "internalType": "string",
          "name": "name",
          "type": "string"
        },
        {
          "internalType": "uint256",
          "name": "tax",
          "type": "uint256"
        },
        {
          "internalType": "uint256",
          "name": "salary",
          "type": "uint256"
        },
        {
          "internalType": "address",
          "name": "PayerAddr",
          "type": "address"
        }
      ],
      "payable": false,
      "stateMutability": "view",
      "type": "function"
    },
    {
      "constant": true,
      "inputs": [
        {
          "internalType": "uint256",
          "name": "",
          "type": "uint256"
        }
      ],
      "name": "payers",
      "outputs": [
        {
          "internalType": "uint256",
          "name": "id",
          "type": "uint256"
        },
        {
          "internalType": "string",
          "name": "name",
          "type": "string"
        },
        {
          "internalType": "uint256",
          "name": "tax",
          "type": "uint256"
        },
        {
          "internalType": "uint256",
          "name": "salary",
          "type": "uint256"
        },
        {
          "internalType": "address",
          "name": "PayerAddr",
          "type": "address"
        }
      ],
      "payable": false,
      "stateMutability": "view",
      "type": "function"
    },
    {
      "constant": true,
      "inputs": [
        {
          "internalType": "address",
          "name": "_PayerAddr",
          "type": "address"
        }
      ],
      "name": "getPayer",
      "outputs": [
        {
          "components": [
            {
              "internalType": "uint256",
              "name": "id",
              "type": "uint256"
            },
            {
              "internalType": "string",
              "name": "name",
              "type": "string"
            },
            {
              "internalType": "uint256",
              "name": "tax",
              "type": "uint256"
            },
            {
              "internalType": "uint256",
              "name": "salary",
              "type": "uint256"
            },
            {
              "internalType": "address",
              "name": "PayerAddr",
              "type": "address"
            }
          ],
          "internalType": "struct Tax.Payer",
          "name": "",
          "type": "tuple"
        }
      ],
      "payable": false,
      "stateMutability": "view",
      "type": "function"
    },
    {
      "constant": false,
      "inputs": [
        {
          "internalType": "string",
          "name": "name",
          "type": "string"
        },
        {
          "internalType": "uint256",
          "name": "_salary",
          "type": "uint256"
        }
      ],
      "name": "addPayer",
      "outputs": [],
      "payable": false,
      "stateMutability": "nonpayable",
      "type": "function"
    },
    {
      "constant": false,
      "inputs": [],
      "name": "payTax",
      "outputs": [],
      "payable": true,
      "stateMutability": "payable",
      "type": "function"
    },
    {
      "constant": true,
      "inputs": [],
      "name": "getSummary",
      "outputs": [
        {
          "internalType": "uint256",
          "name": "",
          "type": "uint256"
        }
      ],
      "payable": false,
      "stateMutability": "view",
      "type": "function"
    },
    {
      "constant": true,
      "inputs": [
        {
          "internalType": "address",
          "name": "mgrAddr",
          "type": "address"
        }
      ],
      "name": "getHead",
      "outputs": [
        {
          "internalType": "uint256",
          "name": "",
          "type": "uint256"
        },
        {
          "internalType": "string",
          "name": "",
          "type": "string"
        }
      ],
      "payable": false,
      "stateMutability": "view",
      "type": "function"
    },
    {
      "constant": true,
      "inputs": [
        {
          "internalType": "uint256",
          "name": "deptno",
          "type": "uint256"
        }
      ],
      "name": "getdept",
      "outputs": [
        {
          "internalType": "uint256",
          "name": "",
          "type": "uint256"
        },
        {
          "internalType": "string",
          "name": "",
          "type": "string"
        }
      ],
      "payable": false,
      "stateMutability": "view",
      "type": "function"
    },
    {
      "constant": true,
      "inputs": [
        {
          "internalType": "uint256",
          "name": "deptno",
          "type": "uint256"
        },
        {
          "internalType": "uint256",
          "name": "pronum",
          "type": "uint256"
        }
      ],
      "name": "getProject",
      "outputs": [
        {
          "internalType": "string",
          "name": "",
          "type": "string"
        },
        {
          "internalType": "uint256",
          "name": "",
          "type": "uint256"
        }
      ],
      "payable": false,
      "stateMutability": "view",
      "type": "function"
    },
    {
      "constant": true,
      "inputs": [
        {
          "internalType": "uint256",
          "name": "deptno",
          "type": "uint256"
        },
        {
          "internalType": "uint256",
          "name": "prono",
          "type": "uint256"
        },
        {
          "internalType": "uint256",
          "name": "reqno",
          "type": "uint256"
        }
      ],
      "name": "getRequest",
      "outputs": [
        {
          "internalType": "string",
          "name": "",
          "type": "string"
        },
        {
          "internalType": "string",
          "name": "",
          "type": "string"
        },
        {
          "internalType": "uint256",
          "name": "",
          "type": "uint256"
        }
      ],
      "payable": false,
      "stateMutability": "view",
      "type": "function"
    },
    {
      "constant": true,
      "inputs": [
        {
          "internalType": "uint256",
          "name": "deptno",
          "type": "uint256"
        }
      ],
      "name": "getProcount",
      "outputs": [
        {
          "internalType": "uint256",
          "name": "",
          "type": "uint256"
        }
      ],
      "payable": false,
      "stateMutability": "view",
      "type": "function"
    },
    {
      "constant": true,
      "inputs": [],
      "name": "getDeptcount",
      "outputs": [
        {
          "internalType": "uint256",
          "name": "",
          "type": "uint256"
        }
      ],
      "payable": false,
      "stateMutability": "view",
      "type": "function"
    },
    {
      "constant": true,
      "inputs": [
        {
          "internalType": "uint256",
          "name": "deptno",
          "type": "uint256"
        },
        {
          "internalType": "uint256",
          "name": "prono",
          "type": "uint256"
        }
      ],
      "name": "getReqCount",
      "outputs": [
        {
          "internalType": "uint256",
          "name": "",
          "type": "uint256"
        }
      ],
      "payable": false,
      "stateMutability": "view",
      "type": "function"
    },
    {
      "constant": false,
      "inputs": [
        {
          "internalType": "string",
          "name": "deptname",
          "type": "string"
        }
      ],
      "name": "addDept",
      "outputs": [],
      "payable": false,
      "stateMutability": "nonpayable",
      "type": "function"
    },
    {
      "constant": false,
      "inputs": [
        {
          "internalType": "string",
          "name": "proname",
          "type": "string"
        },
        {
          "internalType": "uint256",
          "name": "deptno",
          "type": "uint256"
        }
      ],
      "name": "createProject",
      "outputs": [],
      "payable": false,
      "stateMutability": "nonpayable",
      "type": "function"
    },
    {
      "constant": false,
      "inputs": [
        {
          "internalType": "uint256",
          "name": "deptno",
          "type": "uint256"
        },
        {
          "internalType": "uint256",
          "name": "prono",
          "type": "uint256"
        },
        {
          "internalType": "uint256",
          "name": "reqno",
          "type": "uint256"
        }
      ],
      "name": "voteforPro",
      "outputs": [],
      "payable": false,
      "stateMutability": "nonpayable",
      "type": "function"
    },
    {
      "constant": false,
      "inputs": [
        {
          "internalType": "uint256",
          "name": "deptno",
          "type": "uint256"
        },
        {
          "internalType": "uint256",
          "name": "prono",
          "type": "uint256"
        },
        {
          "internalType": "uint256",
          "name": "reqno",
          "type": "uint256"
        }
      ],
      "name": "grantFund",
      "outputs": [
        {
          "internalType": "bool",
          "name": "",
          "type": "bool"
        }
      ],
      "payable": false,
      "stateMutability": "nonpayable",
      "type": "function"
    },
    {
      "constant": false,
      "inputs": [
        {
          "internalType": "uint256",
          "name": "deptno",
          "type": "uint256"
        },
        {
          "internalType": "uint256",
          "name": "prono",
          "type": "uint256"
        },
        {
          "internalType": "uint256",
          "name": "money",
          "type": "uint256"
        },
        {
          "internalType": "string",
          "name": "title",
          "type": "string"
        },
        {
          "internalType": "string",
          "name": "desc",
          "type": "string"
        }
      ],
      "name": "requestFund",
      "outputs": [],
      "payable": false,
      "stateMutability": "nonpayable",
      "type": "function"
    }
  ],
  "bytecode": "0x60806040523480156200001157600080fd5b5060405162002bc738038062002bc7833981810160405262000037919081019062000096565b80600360006101000a81548173ffffffffffffffffffffffffffffffffffffffff021916908373ffffffffffffffffffffffffffffffffffffffff1602179055505062000110565b6000815190506200009081620000f6565b92915050565b600060208284031215620000a957600080fd5b6000620000b9848285016200007f565b91505092915050565b6000620000cf82620000d6565b9050919050565b600073ffffffffffffffffffffffffffffffffffffffff82169050919050565b6200010181620000c2565b81146200010d57600080fd5b50565b612aa780620001206000396000f3fe6080604052600436106101405760003560e01c80636ff4c92f116100b6578063adda66211161006f578063adda662114610496578063aefae9a0146104c1578063b6477df4146104fe578063bbfa3d4a1461053b578063ee97f7f314610579578063f4a605d5146105a457610140565b80636ff4c92f1461038a578063757a602a146103b357806391754a5d146103dc5780639e2755f914610405578063a1d318c41461042e578063a8a73eef1461045957610140565b80633ccfbd03116101085780633ccfbd03146102225780634051ddac1461026357806349df94641461028e5780635b093256146102cc5780636325a11c146103095780636802c7ad1461034957610140565b8063021ae8d3146101455780631538736c146101845780632912ba5f146101c4578063370d3f9a146101ce5780633ab51484146101f9575b600080fd5b34801561015157600080fd5b5061016c60048036036101679190810190612349565b6105e2565b60405161017b939291906126f0565b60405180910390f35b34801561019057600080fd5b506101ab60048036036101a691908101906122e4565b61077a565b6040516101bb9493929190612765565b60405180910390f35b6101cc610862565b005b3480156101da57600080fd5b506101e3610bfb565b6040516101f09190612853565b60405180910390f35b34801561020557600080fd5b50610220600480360361021b9190810190612398565b610c01565b005b34801561022e57600080fd5b50610249600480360361024491908101906122e4565b610d46565b60405161025a95949392919061289e565b60405180910390f35b34801561026f57600080fd5b50610278610e34565b6040516102859190612853565b60405180910390f35b34801561029a57600080fd5b506102b560048036036102b0919081019061230d565b610e3c565b6040516102c3929190612735565b60405180910390f35b3480156102d857600080fd5b506102f360048036036102ee91908101906122e4565b610f1b565b6040516103009190612853565b60405180910390f35b34801561031557600080fd5b50610330600480360361032b9190810190612226565b610f3b565b6040516103409493929190612765565b60405180910390f35b34801561035557600080fd5b50610370600480360361036b9190810190612226565b611023565b60405161038195949392919061289e565b60405180910390f35b34801561039657600080fd5b506103b160048036036103ac919081019061224f565b611111565b005b3480156103bf57600080fd5b506103da60048036036103d59190810190612349565b61124c565b005b3480156103e857600080fd5b5061040360048036036103fe9190810190612290565b611573565b005b34801561041157600080fd5b5061042c60048036036104279190810190612290565b611657565b005b34801561043a57600080fd5b506104436119fc565b6040516104509190612853565b60405180910390f35b34801561046557600080fd5b50610480600480360361047b9190810190612226565b611a06565b60405161048d9190612831565b60405180910390f35b3480156104a257600080fd5b506104ab611b75565b6040516104b89190612853565b60405180910390f35b3480156104cd57600080fd5b506104e860048036036104e39190810190612349565b611b7b565b6040516104f591906126d5565b60405180910390f35b34801561050a57600080fd5b506105256004803603610520919081019061230d565b611e23565b6040516105329190612853565b60405180910390f35b34801561054757600080fd5b50610562600480360361055d9190810190612226565b611e58565b60405161057092919061286e565b60405180910390f35b34801561058557600080fd5b5061058e611f4e565b60405161059b91906126ba565b60405180910390f35b3480156105b057600080fd5b506105cb60048036036105c691908101906122e4565b611f74565b6040516105d992919061286e565b60405180910390f35b6060806000806005600088815260200190815260200160002060040160008781526020019081526020016000206005016000868152602001908152602001600020905080600001816001018260040154828054600181600116156101000203166002900480601f0160208091040260200160405190810160405280929190818152602001828054600181600116156101000203166002900480156106c75780601f1061069c576101008083540402835291602001916106c7565b820191906000526020600020905b8154815290600101906020018083116106aa57829003601f168201915b50505050509250818054600181600116156101000203166002900480601f0160208091040260200160405190810160405280929190818152602001828054600181600116156101000203166002900480156107635780601f1061073857610100808354040283529160200191610763565b820191906000526020600020905b81548152906001019060200180831161074657829003601f168201915b505050505091509350935093505093509350939050565b6005602052806000526040600020600091509050806000018054600181600116156101000203166002900480601f0160208091040260200160405190810160405280929190818152602001828054600181600116156101000203166002900480156108265780601f106107fb57610100808354040283529160200191610826565b820191906000526020600020905b81548152906001019060200180831161080957829003601f168201915b5050505050908060010154908060020154908060030160009054906101000a900473ffffffffffffffffffffffffffffffffffffffff16905084565b600134101561087057600080fd5b61087861203e565b600160003373ffffffffffffffffffffffffffffffffffffffff1673ffffffffffffffffffffffffffffffffffffffff1681526020019081526020016000206040518060a001604052908160008201548152602001600182018054600181600116156101000203166002900480601f0160208091040260200160405190810160405280929190818152602001828054600181600116156101000203166002900480156109655780601f1061093a57610100808354040283529160200191610965565b820191906000526020600020905b81548152906001019060200180831161094857829003601f168201915b5050505050815260200160028201548152602001600382015481526020016004820160009054906101000a900473ffffffffffffffffffffffffffffffffffffffff1673ffffffffffffffffffffffffffffffffffffffff1673ffffffffffffffffffffffffffffffffffffffff168152505090503373ffffffffffffffffffffffffffffffffffffffff16816080015173ffffffffffffffffffffffffffffffffffffffff1614610a1657600080fd5b34600160003373ffffffffffffffffffffffffffffffffffffffff1673ffffffffffffffffffffffffffffffffffffffff16815260200190815260200160002060020160008282540192505081905550610a6e61203e565b600160003373ffffffffffffffffffffffffffffffffffffffff1673ffffffffffffffffffffffffffffffffffffffff1681526020019081526020016000206040518060a001604052908160008201548152602001600182018054600181600116156101000203166002900480601f016020809104026020016040519081016040528092919081815260200182805460018160011615610100020316600290048015610b5b5780601f10610b3057610100808354040283529160200191610b5b565b820191906000526020600020905b815481529060010190602001808311610b3e57829003601f168201915b5050505050815260200160028201548152602001600382015481526020016004820160009054906101000a900473ffffffffffffffffffffffffffffffffffffffff1673ffffffffffffffffffffffffffffffffffffffff1673ffffffffffffffffffffffffffffffffffffffff168152505090503460008083600001518152602001908152602001600020600201600082825401925050819055505050565b60045481565b843373ffffffffffffffffffffffffffffffffffffffff166005600083815260200190815260200160002060030160009054906101000a900473ffffffffffffffffffffffffffffffffffffffff1673ffffffffffffffffffffffffffffffffffffffff1614610c7057600080fd5b60006005600088815260200190815260200160002060040160008781526020019081526020016000206005016000600560008a81526020019081526020016000206004016000898152602001908152602001600020600401600081546001019190508190558152602001908152602001600020905083816000019080519060200190610cfd929190612083565b5082816001019080519060200190610d16929190612083565b5084816004018190555060008160050160006101000a81548160ff02191690831515021790555050505050505050565b6000602052806000526040600020600091509050806000015490806001018054600181600116156101000203166002900480601f016020809104026020016040519081016040528092919081815260200182805460018160011615610100020316600290048015610df85780601f10610dcd57610100808354040283529160200191610df8565b820191906000526020600020905b815481529060010190602001808311610ddb57829003601f168201915b5050505050908060020154908060030154908060040160009054906101000a900473ffffffffffffffffffffffffffffffffffffffff16905085565b600047905090565b60606000806005600086815260200190815260200160002060040160008581526020019081526020016000209050806001018160040154818054600181600116156101000203166002900480601f016020809104026020016040519081016040528092919081815260200182805460018160011615610100020316600290048015610f085780601f10610edd57610100808354040283529160200191610f08565b820191906000526020600020905b815481529060010190602001808311610eeb57829003601f168201915b5050505050915092509250509250929050565b600060056000838152602001908152602001600020600201549050919050565b6006602052806000526040600020600091509050806000018054600181600116156101000203166002900480601f016020809104026020016040519081016040528092919081815260200182805460018160011615610100020316600290048015610fe75780601f10610fbc57610100808354040283529160200191610fe7565b820191906000526020600020905b815481529060010190602001808311610fca57829003601f168201915b5050505050908060010154908060020154908060030160009054906101000a900473ffffffffffffffffffffffffffffffffffffffff16905084565b6001602052806000526040600020600091509050806000015490806001018054600181600116156101000203166002900480601f0160208091040260200160405190810160405280929190818152602001828054600181600116156101000203166002900480156110d55780601f106110aa576101008083540402835291602001916110d5565b820191906000526020600020905b8154815290600101906020018083116110b857829003601f168201915b5050505050908060020154908060030154908060040160009054906101000a900473ffffffffffffffffffffffffffffffffffffffff16905085565b60006005600060046000815460010191905081905581526020019081526020016000209050338160030160006101000a81548173ffffffffffffffffffffffffffffffffffffffff021916908373ffffffffffffffffffffffffffffffffffffffff16021790555081816000019080519060200190611191929190612083565b5060045481600101819055506000600660003373ffffffffffffffffffffffffffffffffffffffff1673ffffffffffffffffffffffffffffffffffffffff1681526020019081526020016000209050338160030160006101000a81548173ffffffffffffffffffffffffffffffffffffffff021916908373ffffffffffffffffffffffffffffffffffffffff1602179055508281600001908051906020019061123b929190612083565b506004548160010181905550505050565b61125461203e565b600160003373ffffffffffffffffffffffffffffffffffffffff1673ffffffffffffffffffffffffffffffffffffffff1681526020019081526020016000206040518060a001604052908160008201548152602001600182018054600181600116156101000203166002900480601f0160208091040260200160405190810160405280929190818152602001828054600181600116156101000203166002900480156113415780601f1061131657610100808354040283529160200191611341565b820191906000526020600020905b81548152906001019060200180831161132457829003601f168201915b5050505050815260200160028201548152602001600382015481526020016004820160009054906101000a900473ffffffffffffffffffffffffffffffffffffffff1673ffffffffffffffffffffffffffffffffffffffff1673ffffffffffffffffffffffffffffffffffffffff168152505090503373ffffffffffffffffffffffffffffffffffffffff16816080015173ffffffffffffffffffffffffffffffffffffffff16146113f257600080fd5b60001515600560008681526020019081526020016000206004016000858152602001908152602001600020600501600084815260200190815260200160002060020160003373ffffffffffffffffffffffffffffffffffffffff1673ffffffffffffffffffffffffffffffffffffffff16815260200190815260200160002060009054906101000a900460ff1615151461148b57600080fd5b6001600560008681526020019081526020016000206004016000858152602001908152602001600020600501600084815260200190815260200160002060020160003373ffffffffffffffffffffffffffffffffffffffff1673ffffffffffffffffffffffffffffffffffffffff16815260200190815260200160002060006101000a81548160ff02191690831515021790555060056000858152602001908152602001600020600401600084815260200190815260200160002060050160008381526020019081526020016000206003016000815480929190600101919050555050505050565b803373ffffffffffffffffffffffffffffffffffffffff166005600083815260200190815260200160002060030160009054906101000a900473ffffffffffffffffffffffffffffffffffffffff1673ffffffffffffffffffffffffffffffffffffffff16146115e257600080fd5b600060056000848152602001908152602001600020600401600060056000868152602001908152602001600020600201600081546001019190508190558152602001908152602001600020905082816000018190555083816001019080519060200190611650929190612083565b5050505050565b61165f61203e565b600160003373ffffffffffffffffffffffffffffffffffffffff1673ffffffffffffffffffffffffffffffffffffffff1681526020019081526020016000206040518060a001604052908160008201548152602001600182018054600181600116156101000203166002900480601f01602080910402602001604051908101604052809291908181526020018280546001816001161561010002031660029004801561174c5780601f106117215761010080835404028352916020019161174c565b820191906000526020600020905b81548152906001019060200180831161172f57829003601f168201915b5050505050815260200160028201548152602001600382015481526020016004820160009054906101000a900473ffffffffffffffffffffffffffffffffffffffff1673ffffffffffffffffffffffffffffffffffffffff1673ffffffffffffffffffffffffffffffffffffffff168152505090506000816000015114611808576040517f08c379a00000000000000000000000000000000000000000000000000000000081526004016117ff906127f1565b60405180910390fd5b6002600081548092919060010191905055506040518060a001604052806002548152602001848152602001600081526020018381526020013373ffffffffffffffffffffffffffffffffffffffff168152506000806002548152602001908152602001600020600082015181600001556020820151816001019080519060200190611894929190612103565b50604082015181600201556060820151816003015560808201518160040160006101000a81548173ffffffffffffffffffffffffffffffffffffffff021916908373ffffffffffffffffffffffffffffffffffffffff1602179055509050506040518060a001604052806002548152602001848152602001600081526020018381526020013373ffffffffffffffffffffffffffffffffffffffff16815250600160003373ffffffffffffffffffffffffffffffffffffffff1673ffffffffffffffffffffffffffffffffffffffff168152602001908152602001600020600082015181600001556020820151816001019080519060200190611998929190612103565b50604082015181600201556060820151816003015560808201518160040160006101000a81548173ffffffffffffffffffffffffffffffffffffffff021916908373ffffffffffffffffffffffffffffffffffffffff160217905550905050505050565b6000600454905090565b611a0e61203e565b600160008373ffffffffffffffffffffffffffffffffffffffff1673ffffffffffffffffffffffffffffffffffffffff1681526020019081526020016000206040518060a001604052908160008201548152602001600182018054600181600116156101000203166002900480601f016020809104026020016040519081016040528092919081815260200182805460018160011615610100020316600290048015611afb5780601f10611ad057610100808354040283529160200191611afb565b820191906000526020600020905b815481529060010190602001808311611ade57829003601f168201915b5050505050815260200160028201548152602001600382015481526020016004820160009054906101000a900473ffffffffffffffffffffffffffffffffffffffff1673ffffffffffffffffffffffffffffffffffffffff1673ffffffffffffffffffffffffffffffffffffffff16815250509050919050565b60025481565b60006002805481611b8857fe5b0460056000868152602001908152602001600020600401600085815260200190815260200160002060050160008481526020019081526020016000206003015411611c08576040517f08c379a0000000000000000000000000000000000000000000000000000000008152600401611bff90612811565b60405180910390fd5b4760056000868152602001908152602001600020600401600085815260200190815260200160002060050160008481526020019081526020016000206004015410611c88576040517f08c379a0000000000000000000000000000000000000000000000000000000008152600401611c7f906127d1565b60405180910390fd5b60001515600560008681526020019081526020016000206004016000858152602001908152602001600020600501600084815260200190815260200160002060050160009054906101000a900460ff16151514611d1a576040517f08c379a0000000000000000000000000000000000000000000000000000000008152600401611d11906127b1565b60405180910390fd5b6001600560008681526020019081526020016000206004016000858152602001908152602001600020600501600084815260200190815260200160002060050160006101000a81548160ff0219169083151502179055506005600085815260200190815260200160002060030160009054906101000a900473ffffffffffffffffffffffffffffffffffffffff1673ffffffffffffffffffffffffffffffffffffffff166108fc6005600087815260200190815260200160002060040160008681526020019081526020016000206005016000858152602001908152602001600020600401549081150290604051600060405180830381858888f1935050505090509392505050565b600060056000848152602001908152602001600020600401600083815260200190815260200160002060040154905092915050565b600060606000600660008573ffffffffffffffffffffffffffffffffffffffff1673ffffffffffffffffffffffffffffffffffffffff1681526020019081526020016000209050806001015481600001808054600181600116156101000203166002900480601f016020809104026020016040519081016040528092919081815260200182805460018160011615610100020316600290048015611f3d5780601f10611f1257610100808354040283529160200191611f3d565b820191906000526020600020905b815481529060010190602001808311611f2057829003601f168201915b505050505090509250925050915091565b600360009054906101000a900473ffffffffffffffffffffffffffffffffffffffff1681565b600060606000600560008581526020019081526020016000209050806001015481600001808054600181600116156101000203166002900480601f01602080910402602001604051908101604052809291908181526020018280546001816001161561010002031660029004801561202d5780601f106120025761010080835404028352916020019161202d565b820191906000526020600020905b81548152906001019060200180831161201057829003601f168201915b505050505090509250925050915091565b6040518060a0016040528060008152602001606081526020016000815260200160008152602001600073ffffffffffffffffffffffffffffffffffffffff1681525090565b828054600181600116156101000203166002900490600052602060002090601f016020900481019282601f106120c457805160ff19168380011785556120f2565b828001600101855582156120f2579182015b828111156120f15782518255916020019190600101906120d6565b5b5090506120ff9190612183565b5090565b828054600181600116156101000203166002900490600052602060002090601f016020900481019282601f1061214457805160ff1916838001178555612172565b82800160010185558215612172579182015b82811115612171578251825591602001919060010190612156565b5b50905061217f9190612183565b5090565b6121a591905b808211156121a1576000816000905550600101612189565b5090565b90565b6000813590506121b781612a36565b92915050565b600082601f8301126121ce57600080fd5b81356121e16121dc82612925565b6128f8565b915080825260208301602083018583830111156121fd57600080fd5b6122088382846129e3565b50505092915050565b60008135905061222081612a4d565b92915050565b60006020828403121561223857600080fd5b6000612246848285016121a8565b91505092915050565b60006020828403121561226157600080fd5b600082013567ffffffffffffffff81111561227b57600080fd5b612287848285016121bd565b91505092915050565b600080604083850312156122a357600080fd5b600083013567ffffffffffffffff8111156122bd57600080fd5b6122c9858286016121bd565b92505060206122da85828601612211565b9150509250929050565b6000602082840312156122f657600080fd5b600061230484828501612211565b91505092915050565b6000806040838503121561232057600080fd5b600061232e85828601612211565b925050602061233f85828601612211565b9150509250929050565b60008060006060848603121561235e57600080fd5b600061236c86828701612211565b935050602061237d86828701612211565b925050604061238e86828701612211565b9150509250925092565b600080600080600060a086880312156123b057600080fd5b60006123be88828901612211565b95505060206123cf88828901612211565b94505060406123e088828901612211565b935050606086013567ffffffffffffffff8111156123fd57600080fd5b612409888289016121bd565b925050608086013567ffffffffffffffff81111561242657600080fd5b612432888289016121bd565b9150509295509295909350565b6124488161299b565b82525050565b61245781612989565b82525050565b61246681612989565b82525050565b612475816129ad565b82525050565b60006124868261295c565b6124908185612978565b93506124a08185602086016129f2565b6124a981612a25565b840191505092915050565b60006124bf82612951565b6124c98185612967565b93506124d98185602086016129f2565b6124e281612a25565b840191505092915050565b60006124f882612951565b6125028185612978565b93506125128185602086016129f2565b61251b81612a25565b840191505092915050565b6000612533600f83612978565b91507f416c7265616479204772616e74656400000000000000000000000000000000006000830152602082019050919050565b6000612573601283612978565b91507f4e6f7420656e6f7567682062616c616e636500000000000000000000000000006000830152602082019050919050565b60006125b3601283612978565b91507f416c7265616479205265676973746572656400000000000000000000000000006000830152602082019050919050565b60006125f3601083612978565b91507f4e6f7420656e6f75676820566f746573000000000000000000000000000000006000830152602082019050919050565b600060a08301600083015161263e600086018261269c565b506020830151848203602086015261265682826124b4565b915050604083015161266b604086018261269c565b50606083015161267e606086018261269c565b506080830151612691608086018261244e565b508091505092915050565b6126a5816129d9565b82525050565b6126b4816129d9565b82525050565b60006020820190506126cf600083018461245d565b92915050565b60006020820190506126ea600083018461246c565b92915050565b6000606082019050818103600083015261270a818661247b565b9050818103602083015261271e818561247b565b905061272d60408301846126ab565b949350505050565b6000604082019050818103600083015261274f818561247b565b905061275e60208301846126ab565b9392505050565b6000608082019050818103600083015261277f81876124ed565b905061278e60208301866126ab565b61279b60408301856126ab565b6127a8606083018461243f565b95945050505050565b600060208201905081810360008301526127ca81612526565b9050919050565b600060208201905081810360008301526127ea81612566565b9050919050565b6000602082019050818103600083015261280a816125a6565b9050919050565b6000602082019050818103600083015261282a816125e6565b9050919050565b6000602082019050818103600083015261284b8184612626565b905092915050565b600060208201905061286860008301846126ab565b92915050565b600060408201905061288360008301856126ab565b8181036020830152612895818461247b565b90509392505050565b600060a0820190506128b360008301886126ab565b81810360208301526128c581876124ed565b90506128d460408301866126ab565b6128e160608301856126ab565b6128ee608083018461245d565b9695505050505050565b6000604051905081810181811067ffffffffffffffff8211171561291b57600080fd5b8060405250919050565b600067ffffffffffffffff82111561293c57600080fd5b601f19601f8301169050602081019050919050565b600081519050919050565b600081519050919050565b600082825260208201905092915050565b600082825260208201905092915050565b6000612994826129b9565b9050919050565b60006129a6826129b9565b9050919050565b60008115159050919050565b600073ffffffffffffffffffffffffffffffffffffffff82169050919050565b6000819050919050565b82818337600083830152505050565b60005b83811015612a105780820151818401526020810190506129f5565b83811115612a1f576000848401525b50505050565b6000601f19601f8301169050919050565b612a3f81612989565b8114612a4a57600080fd5b50565b612a56816129d9565b8114612a6157600080fd5b5056fea365627a7a723158208e9c12e350abd303f98a28ae39ee10a5dac8a361e46bc95e73564bd3876726576c6578706572696d656e74616cf564736f6c63430005100040",
  "source": "// SPDX-License-Identifier: GPL-3.0\n\npragma solidity >=0.4.17;\npragma experimental ABIEncoderV2;\n\ncontract Tax {\n    //Tax Contract\n\n    struct Payer {\n        uint256 id;\n        string name;\n        uint256 tax;\n        uint256 salary;\n        address PayerAddr;\n    }\n\n    modifier minTax() {\n        require(msg.value >= 1 wei);\n        _;\n    }\n\n    modifier isPayer() {\n        Payer memory p = payerbyaddr[msg.sender];\n        require(p.PayerAddr == msg.sender);\n        _;\n    }\n\n    modifier notPayer() {\n        Payer memory p = payerbyaddr[msg.sender];\n        require(p.id == 0, \"Already Registered\");\n        _;\n    }\n\n    mapping(uint256 => Payer) public payers;\n    mapping(address => Payer) public payerbyaddr;\n    uint256 public payerCount;\n\n    function getPayer(address _PayerAddr) public view returns (Payer memory) {\n        return payerbyaddr[_PayerAddr];\n    }\n\n    function addPayer(string memory name, uint256 _salary) public notPayer {\n        payerCount++;\n        payers[payerCount] = Payer(payerCount, name, 0, _salary, msg.sender);\n        payerbyaddr[msg.sender] = Payer(\n            payerCount,\n            name,\n            0,\n            _salary,\n            msg.sender\n        );\n    }\n\n    function payTax() public payable minTax isPayer {\n        payerbyaddr[msg.sender].tax += msg.value;\n        Payer memory temp = payerbyaddr[msg.sender];\n        payers[temp.id].tax += msg.value;\n    }\n\n    function getSummary() public view returns (uint256) {\n        return address(this).balance;\n    }\n\n    //Project Contract\n\n    address public master;\n\n    struct Department {\n        string deptname;\n        uint256 id;\n        uint256 proCount;\n        address payable mgrAddr;\n        mapping(uint256 => Project) probyuint;\n    }\n\n    struct Project {\n        uint256 deptno;\n        string proname;\n        uint256 grantrec;\n        uint256 grantreq;\n        uint256 reqCount;\n        mapping(uint256 => Request) reqbyuint;\n    }\n\n    struct Request {\n        string title;\n        string desc;\n        mapping(address => bool) voters;\n        uint256 votersCount;\n        uint256 moneyreq;\n        bool granted;\n    }\n\n    uint256 public deptCount;\n    mapping(uint256 => Department) public deptbyuint;\n    mapping(address => Department) public deptbyaddr;\n\n    modifier isMaster() {\n        require(master == msg.sender);\n        _;\n    }\n\n    modifier isHead(uint256 deptno) {\n        require(deptbyuint[deptno].mgrAddr == msg.sender);\n        _;\n    }\n\n    constructor(address mas) public {\n        master = mas;\n    }\n\n    function getHead(address mgrAddr)\n        public\n        view\n        returns (uint256, string memory)\n    {\n        Department storage head = deptbyaddr[mgrAddr];\n        return (head.id, head.deptname);\n    }\n\n    function getdept(uint256 deptno)\n        public\n        view\n        returns (uint256, string memory)\n    {\n        Department storage head = deptbyuint[deptno];\n        return (head.id, head.deptname);\n    }\n\n    function getProject(uint256 deptno, uint256 pronum)\n        public\n        view\n        returns (string memory, uint256)\n    {\n        Project storage pro = deptbyuint[deptno].probyuint[pronum];\n        return (pro.proname, pro.reqCount);\n    }\n\n    function getRequest(\n        uint256 deptno,\n        uint256 prono,\n        uint256 reqno\n    )\n        public\n        view\n        returns (\n            string memory,\n            string memory,\n            uint256\n        )\n    {\n        Request storage req = deptbyuint[deptno].probyuint[prono].reqbyuint[\n            reqno\n        ];\n        return (req.title, req.desc, req.moneyreq);\n    }\n\n    function getProcount(uint256 deptno) public view returns (uint256) {\n        return deptbyuint[deptno].proCount;\n    }\n\n    function getDeptcount() public view returns (uint256) {\n        return deptCount;\n    }\n\n    function getReqCount(uint256 deptno, uint256 prono)\n        public\n        view\n        returns (uint256)\n    {\n        return deptbyuint[deptno].probyuint[prono].reqCount;\n    }\n\n    function addDept(string memory deptname) public {\n        Department storage newDept = deptbyuint[++deptCount];\n        newDept.mgrAddr = msg.sender;\n        newDept.deptname = deptname;\n        newDept.id = deptCount;\n\n        Department storage newDept2 = deptbyaddr[msg.sender];\n        newDept2.mgrAddr = msg.sender;\n        newDept2.deptname = deptname;\n        newDept2.id = deptCount;\n    }\n\n    function createProject(string memory proname, uint256 deptno)\n        public\n        isHead(deptno)\n    {\n        Project storage newPro = deptbyuint[deptno].probyuint[\n            ++deptbyuint[deptno].proCount\n        ];\n        newPro.deptno = deptno;\n        newPro.proname = proname;\n    }\n\n    function voteforPro(\n        uint256 deptno,\n        uint256 prono,\n        uint256 reqno\n    ) public isPayer {\n        require(\n            deptbyuint[deptno].probyuint[prono].reqbyuint[reqno].voters[\n                msg.sender\n            ] == false\n        );\n        deptbyuint[deptno].probyuint[prono].reqbyuint[reqno].voters[\n            msg.sender\n        ] = true;\n        deptbyuint[deptno].probyuint[prono].reqbyuint[reqno].votersCount++;\n    }\n\n    function grantFund(\n        uint256 deptno,\n        uint256 prono,\n        uint256 reqno\n    ) public returns (bool) {\n        require(\n            deptbyuint[deptno].probyuint[prono].reqbyuint[reqno].votersCount >\n                (payerCount / 2),\n            \"Not enough Votes\"\n        );\n        require(\n            deptbyuint[deptno].probyuint[prono].reqbyuint[reqno].moneyreq <\n                address(this).balance,\n            \"Not enough balance\"\n        );\n        require(\n            deptbyuint[deptno].probyuint[prono].reqbyuint[reqno].granted ==\n                false,\n            \"Already Granted\"\n        );\n        deptbyuint[deptno].probyuint[prono].reqbyuint[reqno].granted = true;\n        return\n            deptbyuint[deptno].mgrAddr.send(\n                deptbyuint[deptno].probyuint[prono].reqbyuint[reqno].moneyreq\n            );\n    }\n\n    function requestFund(\n        uint256 deptno,\n        uint256 prono,\n        uint256 money,\n        string memory title,\n        string memory desc\n    ) public isHead(deptno) {\n        Request storage newReq = deptbyuint[deptno].probyuint[prono].reqbyuint[\n            ++deptbyuint[deptno].probyuint[prono].reqCount\n        ];\n        newReq.title = title;\n        newReq.desc = desc;\n        newReq.moneyreq = money;\n        newReq.granted = false;\n    }\n}\n",
  "sourcePath": "/Users/akshaysp/Projects/Taxonomy/contracts/Tax.sol",
  "compiler": {
    "name": "solc",
    "version": "0.5.16+commit.9c3226ce.Emscripten.clang"
  },
  "schemaVersion": "3.4.3",
  "updatedAt": "2021-11-09T18:23:38.953Z",
  "networkType": "ethereum",
  "devdoc": {
    "methods": {}
  },
  "userdoc": {
    "methods": {}
  }
}