{
  "contractName": "Tax",
  "abi": [
    {
      "inputs": [
        {
          "internalType": "address",
          "name": "mas",
          "type": "address"
        }
      ],
      "payable": false,
      "stateMutability": "nonpayable",
      "type": "constructor"
    },
    {
      "constant": true,
      "inputs": [],
      "name": "deptCount",
      "outputs": [
        {
          "internalType": "uint256",
          "name": "",
          "type": "uint256"
        }
      ],
      "payable": false,
      "stateMutability": "view",
      "type": "function"
    },
    {
      "constant": true,
      "inputs": [
        {
          "internalType": "address",
          "name": "",
          "type": "address"
        }
      ],
      "name": "deptbyaddr",
      "outputs": [
        {
          "internalType": "string",
          "name": "deptname",
          "type": "string"
        },
        {
          "internalType": "uint256",
          "name": "id",
          "type": "uint256"
        },
        {
          "internalType": "uint256",
          "name": "proCount",
          "type": "uint256"
        },
        {
          "internalType": "address payable",
          "name": "mgrAddr",
          "type": "address"
        }
      ],
      "payable": false,
      "stateMutability": "view",
      "type": "function"
    },
    {
      "constant": true,
      "inputs": [
        {
          "internalType": "uint256",
          "name": "",
          "type": "uint256"
        }
      ],
      "name": "deptbyuint",
      "outputs": [
        {
          "internalType": "string",
          "name": "deptname",
          "type": "string"
        },
        {
          "internalType": "uint256",
          "name": "id",
          "type": "uint256"
        },
        {
          "internalType": "uint256",
          "name": "proCount",
          "type": "uint256"
        },
        {
          "internalType": "address payable",
          "name": "mgrAddr",
          "type": "address"
        }
      ],
      "payable": false,
      "stateMutability": "view",
      "type": "function"
    },
    {
      "constant": true,
      "inputs": [],
      "name": "master",
      "outputs": [
        {
          "internalType": "address",
          "name": "",
          "type": "address"
        }
      ],
      "payable": false,
      "stateMutability": "view",
      "type": "function"
    },
    {
      "constant": true,
      "inputs": [],
      "name": "payerCount",
      "outputs": [
        {
          "internalType": "uint256",
          "name": "",
          "type": "uint256"
        }
      ],
      "payable": false,
      "stateMutability": "view",
      "type": "function"
    },
    {
      "constant": true,
      "inputs": [
        {
          "internalType": "address",
          "name": "",
          "type": "address"
        }
      ],
      "name": "payerbyaddr",
      "outputs": [
        {
          "internalType": "uint256",
          "name": "id",
          "type": "uint256"
        },
        {
          "internalType": "string",
          "name": "name",
          "type": "string"
        },
        {
          "internalType": "uint256",
          "name": "incomeTax",
          "type": "uint256"
        },
        {
          "internalType": "uint256",
          "name": "transportTax",
          "type": "uint256"
        },
        {
          "internalType": "uint256",
          "name": "salary",
          "type": "uint256"
        },
        {
          "internalType": "address",
          "name": "PayerAddr",
          "type": "address"
        }
      ],
      "payable": false,
      "stateMutability": "view",
      "type": "function"
    },
    {
      "constant": true,
      "inputs": [
        {
          "internalType": "uint256",
          "name": "",
          "type": "uint256"
        }
      ],
      "name": "payers",
      "outputs": [
        {
          "internalType": "uint256",
          "name": "id",
          "type": "uint256"
        },
        {
          "internalType": "string",
          "name": "name",
          "type": "string"
        },
        {
          "internalType": "uint256",
          "name": "incomeTax",
          "type": "uint256"
        },
        {
          "internalType": "uint256",
          "name": "transportTax",
          "type": "uint256"
        },
        {
          "internalType": "uint256",
          "name": "salary",
          "type": "uint256"
        },
        {
          "internalType": "address",
          "name": "PayerAddr",
          "type": "address"
        }
      ],
      "payable": false,
      "stateMutability": "view",
      "type": "function"
    },
    {
      "constant": false,
      "inputs": [
        {
          "internalType": "string",
          "name": "hash",
          "type": "string"
        }
      ],
      "name": "sethash",
      "outputs": [],
      "payable": false,
      "stateMutability": "nonpayable",
      "type": "function"
    },
    {
      "constant": true,
      "inputs": [],
      "name": "gethash",
      "outputs": [
        {
          "internalType": "string",
          "name": "",
          "type": "string"
        }
      ],
      "payable": false,
      "stateMutability": "view",
      "type": "function"
    },
    {
      "constant": true,
      "inputs": [
        {
          "internalType": "address",
          "name": "_PayerAddr",
          "type": "address"
        }
      ],
      "name": "getPayer",
      "outputs": [
        {
          "components": [
            {
              "internalType": "uint256",
              "name": "id",
              "type": "uint256"
            },
            {
              "internalType": "string",
              "name": "name",
              "type": "string"
            },
            {
              "internalType": "uint256",
              "name": "incomeTax",
              "type": "uint256"
            },
            {
              "internalType": "uint256",
              "name": "transportTax",
              "type": "uint256"
            },
            {
              "internalType": "uint256",
              "name": "salary",
              "type": "uint256"
            },
            {
              "internalType": "address",
              "name": "PayerAddr",
              "type": "address"
            }
          ],
          "internalType": "struct Tax.Payer",
          "name": "",
          "type": "tuple"
        }
      ],
      "payable": false,
      "stateMutability": "view",
      "type": "function"
    },
    {
      "constant": true,
      "inputs": [],
      "name": "getPayerCount",
      "outputs": [
        {
          "internalType": "uint256",
          "name": "",
          "type": "uint256"
        }
      ],
      "payable": false,
      "stateMutability": "view",
      "type": "function"
    },
    {
      "constant": false,
      "inputs": [
        {
          "internalType": "string",
          "name": "name",
          "type": "string"
        },
        {
          "internalType": "uint256",
          "name": "_salary",
          "type": "uint256"
        }
      ],
      "name": "addPayer",
      "outputs": [],
      "payable": false,
      "stateMutability": "nonpayable",
      "type": "function"
    },
    {
      "constant": false,
      "inputs": [
        {
          "internalType": "uint256",
          "name": "taxName",
          "type": "uint256"
        }
      ],
      "name": "payTax",
      "outputs": [],
      "payable": true,
      "stateMutability": "payable",
      "type": "function"
    },
    {
      "constant": true,
      "inputs": [],
      "name": "getSummary",
      "outputs": [
        {
          "internalType": "uint256",
          "name": "",
          "type": "uint256"
        }
      ],
      "payable": false,
      "stateMutability": "view",
      "type": "function"
    },
    {
      "constant": true,
      "inputs": [
        {
          "internalType": "address",
          "name": "mgrAddr",
          "type": "address"
        }
      ],
      "name": "getHead",
      "outputs": [
        {
          "internalType": "uint256",
          "name": "",
          "type": "uint256"
        },
        {
          "internalType": "string",
          "name": "",
          "type": "string"
        },
        {
          "internalType": "address",
          "name": "",
          "type": "address"
        },
        {
          "internalType": "uint256",
          "name": "",
          "type": "uint256"
        }
      ],
      "payable": false,
      "stateMutability": "view",
      "type": "function"
    },
    {
      "constant": true,
      "inputs": [
        {
          "internalType": "uint256",
          "name": "deptno",
          "type": "uint256"
        }
      ],
      "name": "getdept",
      "outputs": [
        {
          "internalType": "uint256",
          "name": "",
          "type": "uint256"
        },
        {
          "internalType": "string",
          "name": "",
          "type": "string"
        }
      ],
      "payable": false,
      "stateMutability": "view",
      "type": "function"
    },
    {
      "constant": true,
      "inputs": [
        {
          "internalType": "uint256",
          "name": "deptno",
          "type": "uint256"
        },
        {
          "internalType": "uint256",
          "name": "pronum",
          "type": "uint256"
        }
      ],
      "name": "getProject",
      "outputs": [
        {
          "internalType": "string",
          "name": "",
          "type": "string"
        },
        {
          "internalType": "uint256",
          "name": "",
          "type": "uint256"
        }
      ],
      "payable": false,
      "stateMutability": "view",
      "type": "function"
    },
    {
      "constant": true,
      "inputs": [
        {
          "internalType": "uint256",
          "name": "deptno",
          "type": "uint256"
        },
        {
          "internalType": "uint256",
          "name": "prono",
          "type": "uint256"
        },
        {
          "internalType": "uint256",
          "name": "reqno",
          "type": "uint256"
        }
      ],
      "name": "getRequest",
      "outputs": [
        {
          "internalType": "string",
          "name": "",
          "type": "string"
        },
        {
          "internalType": "string",
          "name": "",
          "type": "string"
        },
        {
          "internalType": "uint256",
          "name": "",
          "type": "uint256"
        },
        {
          "internalType": "uint256",
          "name": "",
          "type": "uint256"
        },
        {
          "internalType": "bool",
          "name": "",
          "type": "bool"
        }
      ],
      "payable": false,
      "stateMutability": "view",
      "type": "function"
    },
    {
      "constant": true,
      "inputs": [
        {
          "internalType": "uint256",
          "name": "deptno",
          "type": "uint256"
        }
      ],
      "name": "getProcount",
      "outputs": [
        {
          "internalType": "uint256",
          "name": "",
          "type": "uint256"
        }
      ],
      "payable": false,
      "stateMutability": "view",
      "type": "function"
    },
    {
      "constant": true,
      "inputs": [],
      "name": "getDeptcount",
      "outputs": [
        {
          "internalType": "uint256",
          "name": "",
          "type": "uint256"
        }
      ],
      "payable": false,
      "stateMutability": "view",
      "type": "function"
    },
    {
      "constant": true,
      "inputs": [
        {
          "internalType": "uint256",
          "name": "deptno",
          "type": "uint256"
        },
        {
          "internalType": "uint256",
          "name": "prono",
          "type": "uint256"
        }
      ],
      "name": "getReqCount",
      "outputs": [
        {
          "internalType": "uint256",
          "name": "",
          "type": "uint256"
        }
      ],
      "payable": false,
      "stateMutability": "view",
      "type": "function"
    },
    {
      "constant": false,
      "inputs": [
        {
          "internalType": "string",
          "name": "deptname",
          "type": "string"
        }
      ],
      "name": "addDept",
      "outputs": [],
      "payable": false,
      "stateMutability": "nonpayable",
      "type": "function"
    },
    {
      "constant": false,
      "inputs": [
        {
          "internalType": "string",
          "name": "proname",
          "type": "string"
        },
        {
          "internalType": "uint256",
          "name": "deptno",
          "type": "uint256"
        }
      ],
      "name": "createProject",
      "outputs": [],
      "payable": false,
      "stateMutability": "nonpayable",
      "type": "function"
    },
    {
      "constant": false,
      "inputs": [
        {
          "internalType": "uint256",
          "name": "deptno",
          "type": "uint256"
        },
        {
          "internalType": "uint256",
          "name": "prono",
          "type": "uint256"
        },
        {
          "internalType": "uint256",
          "name": "reqno",
          "type": "uint256"
        }
      ],
      "name": "voteforPro",
      "outputs": [],
      "payable": false,
      "stateMutability": "nonpayable",
      "type": "function"
    },
    {
      "constant": false,
      "inputs": [
        {
          "internalType": "uint256",
          "name": "deptno",
          "type": "uint256"
        },
        {
          "internalType": "uint256",
          "name": "prono",
          "type": "uint256"
        },
        {
          "internalType": "uint256",
          "name": "reqno",
          "type": "uint256"
        }
      ],
      "name": "grantFund",
      "outputs": [
        {
          "internalType": "bool",
          "name": "",
          "type": "bool"
        }
      ],
      "payable": false,
      "stateMutability": "nonpayable",
      "type": "function"
    },
    {
      "constant": false,
      "inputs": [
        {
          "internalType": "uint256",
          "name": "deptno",
          "type": "uint256"
        },
        {
          "internalType": "uint256",
          "name": "prono",
          "type": "uint256"
        },
        {
          "internalType": "uint256",
          "name": "money",
          "type": "uint256"
        },
        {
          "internalType": "string",
          "name": "title",
          "type": "string"
        },
        {
          "internalType": "string",
          "name": "desc",
          "type": "string"
        }
      ],
      "name": "requestFund",
      "outputs": [],
      "payable": false,
      "stateMutability": "nonpayable",
      "type": "function"
    }
  ],
  "bytecode": "0x60806040523480156200001157600080fd5b5060405162002f5e38038062002f5e833981810160405262000037919081019062000096565b80600460006101000a81548173ffffffffffffffffffffffffffffffffffffffff021916908373ffffffffffffffffffffffffffffffffffffffff1602179055505062000110565b6000815190506200009081620000f6565b92915050565b600060208284031215620000a957600080fd5b6000620000b9848285016200007f565b91505092915050565b6000620000cf82620000d6565b9050919050565b600073ffffffffffffffffffffffffffffffffffffffff82169050919050565b6200010181620000c2565b81146200010d57600080fd5b50565b612e3e80620001206000396000f3fe6080604052600436106101815760003560e01c80639e2755f9116100d1578063b63d194f1161008a578063beb54aca11610064578063beb54aca146105fb578063df3eaebe14610626578063ee97f7f314610651578063f4a605d51461067c57610181565b8063b63d194f14610555578063b6477df41461057e578063bbfa3d4a146105bb57610181565b80639e2755f914610440578063a05aaf5014610469578063a1d318c414610485578063a8a73eef146104b0578063adda6621146104ed578063aefae9a01461051857610181565b806349df94641161013e5780636802c7ad116101185780636802c7ad146103835780636ff4c92f146103c5578063757a602a146103ee57806391754a5d1461041757610181565b806349df9464146102c85780635b093256146103065780636325a11c1461034357610181565b8063021ae8d3146101865780631538736c146101c7578063370d3f9a146102075780633ab51484146102325780633ccfbd031461025b5780634051ddac1461029d575b600080fd5b34801561019257600080fd5b506101ad60048036036101a89190810190612635565b6106ba565b6040516101be959493929190612a11565b60405180910390f35b3480156101d357600080fd5b506101ee60048036036101e991908101906125d0565b610872565b6040516101fe9493929190612aa2565b60405180910390f35b34801561021357600080fd5b5061021c61095a565b6040516102299190612b90565b60405180910390f35b34801561023e57600080fd5b5061025960048036036102549190810190612684565b610960565b005b34801561026757600080fd5b50610282600480360361027d91908101906125d0565b610aa5565b60405161029496959493929190612c27565b60405180910390f35b3480156102a957600080fd5b506102b2610b99565b6040516102bf9190612b90565b60405180910390f35b3480156102d457600080fd5b506102ef60048036036102ea91908101906125f9565b610ba1565b6040516102fd929190612a72565b60405180910390f35b34801561031257600080fd5b5061032d600480360361032891908101906125d0565b610c80565b60405161033a9190612b90565b60405180910390f35b34801561034f57600080fd5b5061036a60048036036103659190810190612512565b610ca0565b60405161037a9493929190612aa2565b60405180910390f35b34801561038f57600080fd5b506103aa60048036036103a59190810190612512565b610d88565b6040516103bc96959493929190612c27565b60405180910390f35b3480156103d157600080fd5b506103ec60048036036103e7919081019061253b565b610e7c565b005b3480156103fa57600080fd5b5061041560048036036104109190810190612635565b610fb7565b005b34801561042357600080fd5b5061043e6004803603610439919081019061257c565b6112e8565b005b34801561044c57600080fd5b506104676004803603610462919081019061257c565b6113cc565b005b610483600480360361047e91908101906125d0565b61179d565b005b34801561049157600080fd5b5061049a611bdb565b6040516104a79190612b90565b60405180910390f35b3480156104bc57600080fd5b506104d760048036036104d29190810190612512565b611be5565b6040516104e49190612b6e565b60405180910390f35b3480156104f957600080fd5b50610502611d5e565b60405161050f9190612b90565b60405180910390f35b34801561052457600080fd5b5061053f600480360361053a9190810190612635565b611d64565b60405161054c91906129d4565b60405180910390f35b34801561056157600080fd5b5061057c6004803603610577919081019061253b565b61200c565b005b34801561058a57600080fd5b506105a560048036036105a091908101906125f9565b612026565b6040516105b29190612b90565b60405180910390f35b3480156105c757600080fd5b506105e260048036036105dd9190810190612512565b61205b565b6040516105f29493929190612bdb565b60405180910390f35b34801561060757600080fd5b50610610612187565b60405161061d9190612b90565b60405180910390f35b34801561063257600080fd5b5061063b612191565b60405161064891906129ef565b60405180910390f35b34801561065d57600080fd5b50610666612233565b60405161067391906129b9565b60405180910390f35b34801561068857600080fd5b506106a3600480360361069e91908101906125d0565b612259565b6040516106b1929190612bab565b60405180910390f35b606080600080600080600660008a81526020019081526020016000206004016000898152602001908152602001600020600501600088815260200190815260200160002090508060000181600101826004015483600301548460050160009054906101000a900460ff16848054600181600116156101000203166002900480601f0160208091040260200160405190810160405280929190818152602001828054600181600116156101000203166002900480156107b95780601f1061078e576101008083540402835291602001916107b9565b820191906000526020600020905b81548152906001019060200180831161079c57829003601f168201915b50505050509450838054600181600116156101000203166002900480601f0160208091040260200160405190810160405280929190818152602001828054600181600116156101000203166002900480156108555780601f1061082a57610100808354040283529160200191610855565b820191906000526020600020905b81548152906001019060200180831161083857829003601f168201915b505050505093509550955095509550955050939792965093509350565b6006602052806000526040600020600091509050806000018054600181600116156101000203166002900480601f01602080910402602001604051908101604052809291908181526020018280546001816001161561010002031660029004801561091e5780601f106108f35761010080835404028352916020019161091e565b820191906000526020600020905b81548152906001019060200180831161090157829003601f168201915b5050505050908060010154908060020154908060030160009054906101000a900473ffffffffffffffffffffffffffffffffffffffff16905084565b60055481565b843373ffffffffffffffffffffffffffffffffffffffff166006600083815260200190815260200160002060030160009054906101000a900473ffffffffffffffffffffffffffffffffffffffff1673ffffffffffffffffffffffffffffffffffffffff16146109cf57600080fd5b60006006600088815260200190815260200160002060040160008781526020019081526020016000206005016000600660008a81526020019081526020016000206004016000898152602001908152602001600020600401600081546001019190508190558152602001908152602001600020905083816000019080519060200190610a5c929190612323565b5082816001019080519060200190610a75929190612323565b5084816004018190555060008160050160006101000a81548160ff02191690831515021790555050505050505050565b6000602052806000526040600020600091509050806000015490806001018054600181600116156101000203166002900480601f016020809104026020016040519081016040528092919081815260200182805460018160011615610100020316600290048015610b575780601f10610b2c57610100808354040283529160200191610b57565b820191906000526020600020905b815481529060010190602001808311610b3a57829003601f168201915b5050505050908060020154908060030154908060040154908060050160009054906101000a900473ffffffffffffffffffffffffffffffffffffffff16905086565b600047905090565b60606000806006600086815260200190815260200160002060040160008581526020019081526020016000209050806001018160040154818054600181600116156101000203166002900480601f016020809104026020016040519081016040528092919081815260200182805460018160011615610100020316600290048015610c6d5780601f10610c4257610100808354040283529160200191610c6d565b820191906000526020600020905b815481529060010190602001808311610c5057829003601f168201915b5050505050915092509250509250929050565b600060066000838152602001908152602001600020600201549050919050565b6007602052806000526040600020600091509050806000018054600181600116156101000203166002900480601f016020809104026020016040519081016040528092919081815260200182805460018160011615610100020316600290048015610d4c5780601f10610d2157610100808354040283529160200191610d4c565b820191906000526020600020905b815481529060010190602001808311610d2f57829003601f168201915b5050505050908060010154908060020154908060030160009054906101000a900473ffffffffffffffffffffffffffffffffffffffff16905084565b6001602052806000526040600020600091509050806000015490806001018054600181600116156101000203166002900480601f016020809104026020016040519081016040528092919081815260200182805460018160011615610100020316600290048015610e3a5780601f10610e0f57610100808354040283529160200191610e3a565b820191906000526020600020905b815481529060010190602001808311610e1d57829003601f168201915b5050505050908060020154908060030154908060040154908060050160009054906101000a900473ffffffffffffffffffffffffffffffffffffffff16905086565b60006006600060056000815460010191905081905581526020019081526020016000209050338160030160006101000a81548173ffffffffffffffffffffffffffffffffffffffff021916908373ffffffffffffffffffffffffffffffffffffffff16021790555081816000019080519060200190610efc929190612323565b5060055481600101819055506000600760003373ffffffffffffffffffffffffffffffffffffffff1673ffffffffffffffffffffffffffffffffffffffff1681526020019081526020016000209050338160030160006101000a81548173ffffffffffffffffffffffffffffffffffffffff021916908373ffffffffffffffffffffffffffffffffffffffff16021790555082816000019080519060200190610fa6929190612323565b506005548160010181905550505050565b610fbf6123a3565b600160003373ffffffffffffffffffffffffffffffffffffffff1673ffffffffffffffffffffffffffffffffffffffff1681526020019081526020016000206040518060c001604052908160008201548152602001600182018054600181600116156101000203166002900480601f0160208091040260200160405190810160405280929190818152602001828054600181600116156101000203166002900480156110ac5780601f10611081576101008083540402835291602001916110ac565b820191906000526020600020905b81548152906001019060200180831161108f57829003601f168201915b505050505081526020016002820154815260200160038201548152602001600482015481526020016005820160009054906101000a900473ffffffffffffffffffffffffffffffffffffffff1673ffffffffffffffffffffffffffffffffffffffff1673ffffffffffffffffffffffffffffffffffffffff168152505090503373ffffffffffffffffffffffffffffffffffffffff168160a0015173ffffffffffffffffffffffffffffffffffffffff161461116757600080fd5b60001515600660008681526020019081526020016000206004016000858152602001908152602001600020600501600084815260200190815260200160002060020160003373ffffffffffffffffffffffffffffffffffffffff1673ffffffffffffffffffffffffffffffffffffffff16815260200190815260200160002060009054906101000a900460ff1615151461120057600080fd5b6001600660008681526020019081526020016000206004016000858152602001908152602001600020600501600084815260200190815260200160002060020160003373ffffffffffffffffffffffffffffffffffffffff1673ffffffffffffffffffffffffffffffffffffffff16815260200190815260200160002060006101000a81548160ff02191690831515021790555060066000858152602001908152602001600020600401600084815260200190815260200160002060050160008381526020019081526020016000206003016000815480929190600101919050555050505050565b803373ffffffffffffffffffffffffffffffffffffffff166006600083815260200190815260200160002060030160009054906101000a900473ffffffffffffffffffffffffffffffffffffffff1673ffffffffffffffffffffffffffffffffffffffff161461135757600080fd5b6000600660008481526020019081526020016000206004016000600660008681526020019081526020016000206002016000815460010191905081905581526020019081526020016000209050828160000181905550838160010190805190602001906113c5929190612323565b5050505050565b6113d46123a3565b600160003373ffffffffffffffffffffffffffffffffffffffff1673ffffffffffffffffffffffffffffffffffffffff1681526020019081526020016000206040518060c001604052908160008201548152602001600182018054600181600116156101000203166002900480601f0160208091040260200160405190810160405280929190818152602001828054600181600116156101000203166002900480156114c15780601f10611496576101008083540402835291602001916114c1565b820191906000526020600020905b8154815290600101906020018083116114a457829003601f168201915b505050505081526020016002820154815260200160038201548152602001600482015481526020016005820160009054906101000a900473ffffffffffffffffffffffffffffffffffffffff1673ffffffffffffffffffffffffffffffffffffffff1673ffffffffffffffffffffffffffffffffffffffff168152505090506000816000015114611587576040517f08c379a000000000000000000000000000000000000000000000000000000000815260040161157e90612b2e565b60405180910390fd5b6002600081548092919060010191905055506040518060c00160405280600254815260200184815260200160008152602001600081526020018381526020013373ffffffffffffffffffffffffffffffffffffffff16815250600080600254815260200190815260200160002060008201518160000155602082015181600101908051906020019061161a9291906123ef565b5060408201518160020155606082015181600301556080820151816004015560a08201518160050160006101000a81548173ffffffffffffffffffffffffffffffffffffffff021916908373ffffffffffffffffffffffffffffffffffffffff1602179055509050506040518060c00160405280600254815260200184815260200160008152602001600081526020018381526020013373ffffffffffffffffffffffffffffffffffffffff16815250600160003373ffffffffffffffffffffffffffffffffffffffff1673ffffffffffffffffffffffffffffffffffffffff16815260200190815260200160002060008201518160000155602082015181600101908051906020019061172f9291906123ef565b5060408201518160020155606082015181600301556080820151816004015560a08201518160050160006101000a81548173ffffffffffffffffffffffffffffffffffffffff021916908373ffffffffffffffffffffffffffffffffffffffff160217905550905050505050565b60013410156117ab57600080fd5b6117b36123a3565b600160003373ffffffffffffffffffffffffffffffffffffffff1673ffffffffffffffffffffffffffffffffffffffff1681526020019081526020016000206040518060c001604052908160008201548152602001600182018054600181600116156101000203166002900480601f0160208091040260200160405190810160405280929190818152602001828054600181600116156101000203166002900480156118a05780601f10611875576101008083540402835291602001916118a0565b820191906000526020600020905b81548152906001019060200180831161188357829003601f168201915b505050505081526020016002820154815260200160038201548152602001600482015481526020016005820160009054906101000a900473ffffffffffffffffffffffffffffffffffffffff1673ffffffffffffffffffffffffffffffffffffffff1673ffffffffffffffffffffffffffffffffffffffff168152505090503373ffffffffffffffffffffffffffffffffffffffff168160a0015173ffffffffffffffffffffffffffffffffffffffff161461195b57600080fd5b6119636123a3565b600160003373ffffffffffffffffffffffffffffffffffffffff1673ffffffffffffffffffffffffffffffffffffffff1681526020019081526020016000206040518060c001604052908160008201548152602001600182018054600181600116156101000203166002900480601f016020809104026020016040519081016040528092919081815260200182805460018160011615610100020316600290048015611a505780601f10611a2557610100808354040283529160200191611a50565b820191906000526020600020905b815481529060010190602001808311611a3357829003601f168201915b505050505081526020016002820154815260200160038201548152602001600482015481526020016005820160009054906101000a900473ffffffffffffffffffffffffffffffffffffffff1673ffffffffffffffffffffffffffffffffffffffff1673ffffffffffffffffffffffffffffffffffffffff168152505090506001831415611b545734600160003373ffffffffffffffffffffffffffffffffffffffff1673ffffffffffffffffffffffffffffffffffffffff16815260200190815260200160002060020160008282540192505081905550346000808360000151815260200190815260200160002060020160008282540192505081905550611bd6565b6002831415611bd55734600160003373ffffffffffffffffffffffffffffffffffffffff1673ffffffffffffffffffffffffffffffffffffffff168152602001908152602001600020600301600082825401925050819055503460008083600001518152602001908152602001600020600301600082825401925050819055505b5b505050565b6000600554905090565b611bed6123a3565b600160008373ffffffffffffffffffffffffffffffffffffffff1673ffffffffffffffffffffffffffffffffffffffff1681526020019081526020016000206040518060c001604052908160008201548152602001600182018054600181600116156101000203166002900480601f016020809104026020016040519081016040528092919081815260200182805460018160011615610100020316600290048015611cda5780601f10611caf57610100808354040283529160200191611cda565b820191906000526020600020905b815481529060010190602001808311611cbd57829003601f168201915b505050505081526020016002820154815260200160038201548152602001600482015481526020016005820160009054906101000a900473ffffffffffffffffffffffffffffffffffffffff1673ffffffffffffffffffffffffffffffffffffffff1673ffffffffffffffffffffffffffffffffffffffff16815250509050919050565b60025481565b60006002805481611d7157fe5b0460066000868152602001908152602001600020600401600085815260200190815260200160002060050160008481526020019081526020016000206003015411611df1576040517f08c379a0000000000000000000000000000000000000000000000000000000008152600401611de890612b4e565b60405180910390fd5b4760066000868152602001908152602001600020600401600085815260200190815260200160002060050160008481526020019081526020016000206004015410611e71576040517f08c379a0000000000000000000000000000000000000000000000000000000008152600401611e6890612b0e565b60405180910390fd5b60001515600660008681526020019081526020016000206004016000858152602001908152602001600020600501600084815260200190815260200160002060050160009054906101000a900460ff16151514611f03576040517f08c379a0000000000000000000000000000000000000000000000000000000008152600401611efa90612aee565b60405180910390fd5b6001600660008681526020019081526020016000206004016000858152602001908152602001600020600501600084815260200190815260200160002060050160006101000a81548160ff0219169083151502179055506006600085815260200190815260200160002060030160009054906101000a900473ffffffffffffffffffffffffffffffffffffffff1673ffffffffffffffffffffffffffffffffffffffff166108fc6006600087815260200190815260200160002060040160008681526020019081526020016000206005016000858152602001908152602001600020600401549081150290604051600060405180830381858888f1935050505090509392505050565b8060039080519060200190612022929190612323565b5050565b600060066000848152602001908152602001600020600401600083815260200190815260200160002060040154905092915050565b600060606000806000600760008773ffffffffffffffffffffffffffffffffffffffff1673ffffffffffffffffffffffffffffffffffffffff16815260200190815260200160002090508060010154816000018260030160009054906101000a900473ffffffffffffffffffffffffffffffffffffffff168360020154828054600181600116156101000203166002900480601f01602080910402602001604051908101604052809291908181526020018280546001816001161561010002031660029004801561216d5780601f106121425761010080835404028352916020019161216d565b820191906000526020600020905b81548152906001019060200180831161215057829003601f168201915b505050505092508191509450945094509450509193509193565b6000600254905090565b606060038054600181600116156101000203166002900480601f0160208091040260200160405190810160405280929190818152602001828054600181600116156101000203166002900480156122295780601f106121fe57610100808354040283529160200191612229565b820191906000526020600020905b81548152906001019060200180831161220c57829003601f168201915b5050505050905090565b600460009054906101000a900473ffffffffffffffffffffffffffffffffffffffff1681565b600060606000600660008581526020019081526020016000209050806001015481600001808054600181600116156101000203166002900480601f0160208091040260200160405190810160405280929190818152602001828054600181600116156101000203166002900480156123125780601f106122e757610100808354040283529160200191612312565b820191906000526020600020905b8154815290600101906020018083116122f557829003601f168201915b505050505090509250925050915091565b828054600181600116156101000203166002900490600052602060002090601f016020900481019282601f1061236457805160ff1916838001178555612392565b82800160010185558215612392579182015b82811115612391578251825591602001919060010190612376565b5b50905061239f919061246f565b5090565b6040518060c001604052806000815260200160608152602001600081526020016000815260200160008152602001600073ffffffffffffffffffffffffffffffffffffffff1681525090565b828054600181600116156101000203166002900490600052602060002090601f016020900481019282601f1061243057805160ff191683800117855561245e565b8280016001018555821561245e579182015b8281111561245d578251825591602001919060010190612442565b5b50905061246b919061246f565b5090565b61249191905b8082111561248d576000816000905550600101612475565b5090565b90565b6000813590506124a381612dcd565b92915050565b600082601f8301126124ba57600080fd5b81356124cd6124c882612cbc565b612c8f565b915080825260208301602083018583830111156124e957600080fd5b6124f4838284612d7a565b50505092915050565b60008135905061250c81612de4565b92915050565b60006020828403121561252457600080fd5b600061253284828501612494565b91505092915050565b60006020828403121561254d57600080fd5b600082013567ffffffffffffffff81111561256757600080fd5b612573848285016124a9565b91505092915050565b6000806040838503121561258f57600080fd5b600083013567ffffffffffffffff8111156125a957600080fd5b6125b5858286016124a9565b92505060206125c6858286016124fd565b9150509250929050565b6000602082840312156125e257600080fd5b60006125f0848285016124fd565b91505092915050565b6000806040838503121561260c57600080fd5b600061261a858286016124fd565b925050602061262b858286016124fd565b9150509250929050565b60008060006060848603121561264a57600080fd5b6000612658868287016124fd565b9350506020612669868287016124fd565b925050604061267a868287016124fd565b9150509250925092565b600080600080600060a0868803121561269c57600080fd5b60006126aa888289016124fd565b95505060206126bb888289016124fd565b94505060406126cc888289016124fd565b935050606086013567ffffffffffffffff8111156126e957600080fd5b6126f5888289016124a9565b925050608086013567ffffffffffffffff81111561271257600080fd5b61271e888289016124a9565b9150509295509295909350565b61273481612d32565b82525050565b61274381612d20565b82525050565b61275281612d20565b82525050565b61276181612d44565b82525050565b600061277282612cf3565b61277c8185612d0f565b935061278c818560208601612d89565b61279581612dbc565b840191505092915050565b60006127ab82612ce8565b6127b58185612cfe565b93506127c5818560208601612d89565b6127ce81612dbc565b840191505092915050565b60006127e482612ce8565b6127ee8185612d0f565b93506127fe818560208601612d89565b61280781612dbc565b840191505092915050565b600061281f600f83612d0f565b91507f416c7265616479204772616e74656400000000000000000000000000000000006000830152602082019050919050565b600061285f601283612d0f565b91507f4e6f7420656e6f7567682062616c616e636500000000000000000000000000006000830152602082019050919050565b600061289f601283612d0f565b91507f416c7265616479205265676973746572656400000000000000000000000000006000830152602082019050919050565b60006128df601083612d0f565b91507f4e6f7420656e6f75676820566f746573000000000000000000000000000000006000830152602082019050919050565b600060c08301600083015161292a600086018261299b565b506020830151848203602086015261294282826127a0565b9150506040830151612957604086018261299b565b50606083015161296a606086018261299b565b50608083015161297d608086018261299b565b5060a083015161299060a086018261273a565b508091505092915050565b6129a481612d70565b82525050565b6129b381612d70565b82525050565b60006020820190506129ce6000830184612749565b92915050565b60006020820190506129e96000830184612758565b92915050565b60006020820190508181036000830152612a098184612767565b905092915050565b600060a0820190508181036000830152612a2b8188612767565b90508181036020830152612a3f8187612767565b9050612a4e60408301866129aa565b612a5b60608301856129aa565b612a686080830184612758565b9695505050505050565b60006040820190508181036000830152612a8c8185612767565b9050612a9b60208301846129aa565b9392505050565b60006080820190508181036000830152612abc81876127d9565b9050612acb60208301866129aa565b612ad860408301856129aa565b612ae5606083018461272b565b95945050505050565b60006020820190508181036000830152612b0781612812565b9050919050565b60006020820190508181036000830152612b2781612852565b9050919050565b60006020820190508181036000830152612b4781612892565b9050919050565b60006020820190508181036000830152612b67816128d2565b9050919050565b60006020820190508181036000830152612b888184612912565b905092915050565b6000602082019050612ba560008301846129aa565b92915050565b6000604082019050612bc060008301856129aa565b8181036020830152612bd28184612767565b90509392505050565b6000608082019050612bf060008301876129aa565b8181036020830152612c028186612767565b9050612c116040830185612749565b612c1e60608301846129aa565b95945050505050565b600060c082019050612c3c60008301896129aa565b8181036020830152612c4e81886127d9565b9050612c5d60408301876129aa565b612c6a60608301866129aa565b612c7760808301856129aa565b612c8460a0830184612749565b979650505050505050565b6000604051905081810181811067ffffffffffffffff82111715612cb257600080fd5b8060405250919050565b600067ffffffffffffffff821115612cd357600080fd5b601f19601f8301169050602081019050919050565b600081519050919050565b600081519050919050565b600082825260208201905092915050565b600082825260208201905092915050565b6000612d2b82612d50565b9050919050565b6000612d3d82612d50565b9050919050565b60008115159050919050565b600073ffffffffffffffffffffffffffffffffffffffff82169050919050565b6000819050919050565b82818337600083830152505050565b60005b83811015612da7578082015181840152602081019050612d8c565b83811115612db6576000848401525b50505050565b6000601f19601f8301169050919050565b612dd681612d20565b8114612de157600080fd5b50565b612ded81612d70565b8114612df857600080fd5b5056fea365627a7a72315820a520d103eb278700cf645b7a927e55f07f4e71ec39b07db5377bc5ef3dee92b56c6578706572696d656e74616cf564736f6c63430005100040",
  "source": "// SPDX-License-Identifier: GPL-3.0\n\npragma solidity >=0.4.17;\npragma experimental ABIEncoderV2;\n\ncontract Tax {\n    //Tax Contract\n\n    struct Payer {\n        uint256 id;\n        string name;\n        uint256 incomeTax;\n        uint256 transportTax;\n        uint256 salary;\n        address PayerAddr;\n    }\n\n    modifier minTax() {\n        require(msg.value >= 1 wei);\n        _;\n    }\n\n    modifier isPayer() {\n        Payer memory p = payerbyaddr[msg.sender];\n        require(p.PayerAddr == msg.sender);\n        _;\n    }\n\n    modifier notPayer() {\n        Payer memory p = payerbyaddr[msg.sender];\n        require(p.id == 0, \"Already Registered\");\n        _;\n    }\n\n    mapping(uint256 => Payer) public payers;\n    mapping(address => Payer) public payerbyaddr;\n    uint256 public payerCount;\n    string acthash;\n\n    function sethash(string memory hash) public {\n        acthash = hash;\n    }\n\n    function gethash() public view returns (string memory) {\n        return acthash;\n    }\n\n    function getPayer(address _PayerAddr) public view returns (Payer memory) {\n        return payerbyaddr[_PayerAddr];\n    }\n\n    function getPayerCount() public view returns (uint256) {\n        return payerCount;\n    }\n\n    function addPayer(string memory name, uint256 _salary) public notPayer {\n        payerCount++;\n        payers[payerCount] = Payer(payerCount, name, 0, 0, _salary, msg.sender);\n        payerbyaddr[msg.sender] = Payer(\n            payerCount,\n            name,\n            0,\n            0,\n            _salary,\n            msg.sender\n        );\n    }\n\n    function payTax(uint256 taxName) public payable minTax isPayer {\n        Payer memory temp = payerbyaddr[msg.sender];\n        if (taxName == 1) {\n            payerbyaddr[msg.sender].incomeTax += msg.value;\n\n            payers[temp.id].incomeTax += msg.value;\n        } else if (taxName == 2) {\n            payerbyaddr[msg.sender].transportTax += msg.value;\n\n            payers[temp.id].transportTax += msg.value;\n        }\n    }\n\n    function getSummary() public view returns (uint256) {\n        return address(this).balance;\n    }\n\n    //Project Contract\n\n    address public master;\n\n    struct Department {\n        string deptname;\n        uint256 id;\n        uint256 proCount;\n        address payable mgrAddr;\n        mapping(uint256 => Project) probyuint;\n    }\n\n    struct Project {\n        uint256 deptno;\n        string proname;\n        uint256 grantrec;\n        uint256 grantreq;\n        uint256 reqCount;\n        mapping(uint256 => Request) reqbyuint;\n    }\n\n    struct Request {\n        string title;\n        string desc;\n        mapping(address => bool) voters;\n        uint256 votersCount;\n        uint256 moneyreq;\n        bool granted;\n    }\n\n    uint256 public deptCount;\n    mapping(uint256 => Department) public deptbyuint;\n    mapping(address => Department) public deptbyaddr;\n\n    modifier isMaster() {\n        require(master == msg.sender);\n        _;\n    }\n\n    modifier isHead(uint256 deptno) {\n        require(deptbyuint[deptno].mgrAddr == msg.sender);\n        _;\n    }\n\n    constructor(address mas) public {\n        master = mas;\n    }\n\n    function getHead(address mgrAddr)\n        public\n        view\n        returns (\n            uint256,\n            string memory,\n            address,\n            uint256\n        )\n    {\n        Department storage head = deptbyaddr[mgrAddr];\n        return (head.id, head.deptname, head.mgrAddr, head.proCount);\n    }\n\n    function getdept(uint256 deptno)\n        public\n        view\n        returns (uint256, string memory)\n    {\n        Department storage head = deptbyuint[deptno];\n        return (head.id, head.deptname);\n    }\n\n    function getProject(uint256 deptno, uint256 pronum)\n        public\n        view\n        returns (string memory, uint256)\n    {\n        Project storage pro = deptbyuint[deptno].probyuint[pronum];\n        return (pro.proname, pro.reqCount);\n    }\n\n    function getRequest(\n        uint256 deptno,\n        uint256 prono,\n        uint256 reqno\n    )\n        public\n        view\n        returns (\n            string memory,\n            string memory,\n            uint256,\n            uint256,\n            bool\n        )\n    {\n        Request storage req = deptbyuint[deptno].probyuint[prono].reqbyuint[\n            reqno\n        ];\n        return (\n            req.title,\n            req.desc,\n            req.moneyreq,\n            req.votersCount,\n            req.granted\n        );\n    }\n\n    function getProcount(uint256 deptno) public view returns (uint256) {\n        return deptbyuint[deptno].proCount;\n    }\n\n    function getDeptcount() public view returns (uint256) {\n        return deptCount;\n    }\n\n    function getReqCount(uint256 deptno, uint256 prono)\n        public\n        view\n        returns (uint256)\n    {\n        return deptbyuint[deptno].probyuint[prono].reqCount;\n    }\n\n    function addDept(string memory deptname) public {\n        Department storage newDept = deptbyuint[++deptCount];\n        newDept.mgrAddr = msg.sender;\n        newDept.deptname = deptname;\n        newDept.id = deptCount;\n\n        Department storage newDept2 = deptbyaddr[msg.sender];\n        newDept2.mgrAddr = msg.sender;\n        newDept2.deptname = deptname;\n        newDept2.id = deptCount;\n    }\n\n    function createProject(string memory proname, uint256 deptno)\n        public\n        isHead(deptno)\n    {\n        Project storage newPro = deptbyuint[deptno].probyuint[\n            ++deptbyuint[deptno].proCount\n        ];\n        newPro.deptno = deptno;\n        newPro.proname = proname;\n    }\n\n    function voteforPro(\n        uint256 deptno,\n        uint256 prono,\n        uint256 reqno\n    ) public isPayer {\n        require(\n            deptbyuint[deptno].probyuint[prono].reqbyuint[reqno].voters[\n                msg.sender\n            ] == false\n        );\n        deptbyuint[deptno].probyuint[prono].reqbyuint[reqno].voters[\n            msg.sender\n        ] = true;\n        deptbyuint[deptno].probyuint[prono].reqbyuint[reqno].votersCount++;\n    }\n\n    function grantFund(\n        uint256 deptno,\n        uint256 prono,\n        uint256 reqno\n    ) public returns (bool) {\n        require(\n            deptbyuint[deptno].probyuint[prono].reqbyuint[reqno].votersCount >\n                (payerCount / 2),\n            \"Not enough Votes\"\n        );\n        require(\n            deptbyuint[deptno].probyuint[prono].reqbyuint[reqno].moneyreq <\n                address(this).balance,\n            \"Not enough balance\"\n        );\n        require(\n            deptbyuint[deptno].probyuint[prono].reqbyuint[reqno].granted ==\n                false,\n            \"Already Granted\"\n        );\n        deptbyuint[deptno].probyuint[prono].reqbyuint[reqno].granted = true;\n        return\n            deptbyuint[deptno].mgrAddr.send(\n                deptbyuint[deptno].probyuint[prono].reqbyuint[reqno].moneyreq\n            );\n    }\n\n    function requestFund(\n        uint256 deptno,\n        uint256 prono,\n        uint256 money,\n        string memory title,\n        string memory desc\n    ) public isHead(deptno) {\n        Request storage newReq = deptbyuint[deptno].probyuint[prono].reqbyuint[\n            ++deptbyuint[deptno].probyuint[prono].reqCount\n        ];\n        newReq.title = title;\n        newReq.desc = desc;\n        newReq.moneyreq = money;\n        newReq.granted = false;\n    }\n}\n",
  "sourcePath": "/Users/akshaysp/Projects/Taxonomy/contracts/Tax.sol",
  "compiler": {
    "name": "solc",
    "version": "0.5.16+commit.9c3226ce.Emscripten.clang"
  },
  "schemaVersion": "3.4.3",
  "updatedAt": "2021-11-19T15:17:43.185Z",
  "networkType": "ethereum",
  "devdoc": {
    "methods": {}
  },
  "userdoc": {
    "methods": {}
  }
}