{
  "contractName": "Tax",
  "abi": [
    {
      "constant": true,
      "inputs": [],
      "name": "payerCount",
      "outputs": [
        {
          "internalType": "uint256",
          "name": "",
          "type": "uint256"
        }
      ],
      "payable": false,
      "stateMutability": "view",
      "type": "function"
    },
    {
      "constant": true,
      "inputs": [
        {
          "internalType": "address",
          "name": "",
          "type": "address"
        }
      ],
      "name": "payerbyaddr",
      "outputs": [
        {
          "internalType": "uint256",
          "name": "id",
          "type": "uint256"
        },
        {
          "internalType": "string",
          "name": "name",
          "type": "string"
        },
        {
          "internalType": "uint256",
          "name": "tax",
          "type": "uint256"
        },
        {
          "internalType": "uint256",
          "name": "salary",
          "type": "uint256"
        },
        {
          "internalType": "address",
          "name": "PayerAddr",
          "type": "address"
        }
      ],
      "payable": false,
      "stateMutability": "view",
      "type": "function"
    },
    {
      "constant": true,
      "inputs": [
        {
          "internalType": "uint256",
          "name": "",
          "type": "uint256"
        }
      ],
      "name": "payers",
      "outputs": [
        {
          "internalType": "uint256",
          "name": "id",
          "type": "uint256"
        },
        {
          "internalType": "string",
          "name": "name",
          "type": "string"
        },
        {
          "internalType": "uint256",
          "name": "tax",
          "type": "uint256"
        },
        {
          "internalType": "uint256",
          "name": "salary",
          "type": "uint256"
        },
        {
          "internalType": "address",
          "name": "PayerAddr",
          "type": "address"
        }
      ],
      "payable": false,
      "stateMutability": "view",
      "type": "function"
    },
    {
      "constant": true,
      "inputs": [
        {
          "internalType": "address",
          "name": "_PayerAddr",
          "type": "address"
        }
      ],
      "name": "getPayer",
      "outputs": [
        {
          "components": [
            {
              "internalType": "uint256",
              "name": "id",
              "type": "uint256"
            },
            {
              "internalType": "string",
              "name": "name",
              "type": "string"
            },
            {
              "internalType": "uint256",
              "name": "tax",
              "type": "uint256"
            },
            {
              "internalType": "uint256",
              "name": "salary",
              "type": "uint256"
            },
            {
              "internalType": "address",
              "name": "PayerAddr",
              "type": "address"
            }
          ],
          "internalType": "struct Tax.Payer",
          "name": "",
          "type": "tuple"
        }
      ],
      "payable": false,
      "stateMutability": "view",
      "type": "function"
    },
    {
      "constant": false,
      "inputs": [
        {
          "internalType": "string",
          "name": "name",
          "type": "string"
        },
        {
          "internalType": "uint256",
          "name": "_salary",
          "type": "uint256"
        }
      ],
      "name": "addPayer",
      "outputs": [],
      "payable": false,
      "stateMutability": "nonpayable",
      "type": "function"
    },
    {
      "constant": false,
      "inputs": [],
      "name": "payTax",
      "outputs": [],
      "payable": true,
      "stateMutability": "payable",
      "type": "function"
    },
    {
      "constant": true,
      "inputs": [],
      "name": "getSummary",
      "outputs": [
        {
          "internalType": "uint256",
          "name": "",
          "type": "uint256"
        }
      ],
      "payable": false,
      "stateMutability": "view",
      "type": "function"
    }
  ],
  "bytecode": "0x608060405234801561001057600080fd5b50610ff1806100206000396000f3fe6080604052600436106100705760003560e01c80636802c7ad1161004e5780636802c7ad146100eb5780639e2755f91461012c578063a8a73eef14610155578063adda66211461019257610070565b80632912ba5f146100755780633ccfbd031461007f5780634051ddac146100c0575b600080fd5b61007d6101bd565b005b34801561008b57600080fd5b506100a660048036036100a19190810190610c87565b610556565b6040516100b7959493929190610e11565b60405180910390f35b3480156100cc57600080fd5b506100d5610644565b6040516100e29190610df6565b60405180910390f35b3480156100f757600080fd5b50610112600480360361010d9190810190610c0a565b61064c565b604051610123959493929190610e11565b60405180910390f35b34801561013857600080fd5b50610153600480360361014e9190810190610c33565b61073a565b005b34801561016157600080fd5b5061017c60048036036101779190810190610c0a565b61092d565b6040516101899190610dd4565b60405180910390f35b34801561019e57600080fd5b506101a7610a9c565b6040516101b49190610df6565b60405180910390f35b60013410156101cb57600080fd5b6101d3610aa2565b600160003373ffffffffffffffffffffffffffffffffffffffff1673ffffffffffffffffffffffffffffffffffffffff1681526020019081526020016000206040518060a001604052908160008201548152602001600182018054600181600116156101000203166002900480601f0160208091040260200160405190810160405280929190818152602001828054600181600116156101000203166002900480156102c05780601f10610295576101008083540402835291602001916102c0565b820191906000526020600020905b8154815290600101906020018083116102a357829003601f168201915b5050505050815260200160028201548152602001600382015481526020016004820160009054906101000a900473ffffffffffffffffffffffffffffffffffffffff1673ffffffffffffffffffffffffffffffffffffffff1673ffffffffffffffffffffffffffffffffffffffff168152505090503373ffffffffffffffffffffffffffffffffffffffff16816080015173ffffffffffffffffffffffffffffffffffffffff161461037157600080fd5b34600160003373ffffffffffffffffffffffffffffffffffffffff1673ffffffffffffffffffffffffffffffffffffffff168152602001908152602001600020600201600082825401925050819055506103c9610aa2565b600160003373ffffffffffffffffffffffffffffffffffffffff1673ffffffffffffffffffffffffffffffffffffffff1681526020019081526020016000206040518060a001604052908160008201548152602001600182018054600181600116156101000203166002900480601f0160208091040260200160405190810160405280929190818152602001828054600181600116156101000203166002900480156104b65780601f1061048b576101008083540402835291602001916104b6565b820191906000526020600020905b81548152906001019060200180831161049957829003601f168201915b5050505050815260200160028201548152602001600382015481526020016004820160009054906101000a900473ffffffffffffffffffffffffffffffffffffffff1673ffffffffffffffffffffffffffffffffffffffff1673ffffffffffffffffffffffffffffffffffffffff168152505090503460008083600001518152602001908152602001600020600201600082825401925050819055505050565b6000602052806000526040600020600091509050806000015490806001018054600181600116156101000203166002900480601f0160208091040260200160405190810160405280929190818152602001828054600181600116156101000203166002900480156106085780601f106105dd57610100808354040283529160200191610608565b820191906000526020600020905b8154815290600101906020018083116105eb57829003601f168201915b5050505050908060020154908060030154908060040160009054906101000a900473ffffffffffffffffffffffffffffffffffffffff16905085565b600047905090565b6001602052806000526040600020600091509050806000015490806001018054600181600116156101000203166002900480601f0160208091040260200160405190810160405280929190818152602001828054600181600116156101000203166002900480156106fe5780601f106106d3576101008083540402835291602001916106fe565b820191906000526020600020905b8154815290600101906020018083116106e157829003601f168201915b5050505050908060020154908060030154908060040160009054906101000a900473ffffffffffffffffffffffffffffffffffffffff16905085565b6002600081548092919060010191905055506040518060a001604052806002548152602001838152602001600081526020018281526020013373ffffffffffffffffffffffffffffffffffffffff1681525060008060025481526020019081526020016000206000820151816000015560208201518160010190805190602001906107c6929190610ae7565b50604082015181600201556060820151816003015560808201518160040160006101000a81548173ffffffffffffffffffffffffffffffffffffffff021916908373ffffffffffffffffffffffffffffffffffffffff1602179055509050506040518060a001604052806002548152602001838152602001600081526020018281526020013373ffffffffffffffffffffffffffffffffffffffff16815250600160003373ffffffffffffffffffffffffffffffffffffffff1673ffffffffffffffffffffffffffffffffffffffff1681526020019081526020016000206000820151816000015560208201518160010190805190602001906108ca929190610ae7565b50604082015181600201556060820151816003015560808201518160040160006101000a81548173ffffffffffffffffffffffffffffffffffffffff021916908373ffffffffffffffffffffffffffffffffffffffff1602179055509050505050565b610935610aa2565b600160008373ffffffffffffffffffffffffffffffffffffffff1673ffffffffffffffffffffffffffffffffffffffff1681526020019081526020016000206040518060a001604052908160008201548152602001600182018054600181600116156101000203166002900480601f016020809104026020016040519081016040528092919081815260200182805460018160011615610100020316600290048015610a225780601f106109f757610100808354040283529160200191610a22565b820191906000526020600020905b815481529060010190602001808311610a0557829003601f168201915b5050505050815260200160028201548152602001600382015481526020016004820160009054906101000a900473ffffffffffffffffffffffffffffffffffffffff1673ffffffffffffffffffffffffffffffffffffffff1673ffffffffffffffffffffffffffffffffffffffff16815250509050919050565b60025481565b6040518060a0016040528060008152602001606081526020016000815260200160008152602001600073ffffffffffffffffffffffffffffffffffffffff1681525090565b828054600181600116156101000203166002900490600052602060002090601f016020900481019282601f10610b2857805160ff1916838001178555610b56565b82800160010185558215610b56579182015b82811115610b55578251825591602001919060010190610b3a565b5b509050610b639190610b67565b5090565b610b8991905b80821115610b85576000816000905550600101610b6d565b5090565b90565b600081359050610b9b81610f80565b92915050565b600082601f830112610bb257600080fd5b8135610bc5610bc082610e98565b610e6b565b91508082526020830160208301858383011115610be157600080fd5b610bec838284610f2d565b50505092915050565b600081359050610c0481610f97565b92915050565b600060208284031215610c1c57600080fd5b6000610c2a84828501610b8c565b91505092915050565b60008060408385031215610c4657600080fd5b600083013567ffffffffffffffff811115610c6057600080fd5b610c6c85828601610ba1565b9250506020610c7d85828601610bf5565b9150509250929050565b600060208284031215610c9957600080fd5b6000610ca784828501610bf5565b91505092915050565b610cb981610ef1565b82525050565b610cc881610ef1565b82525050565b6000610cd982610ec4565b610ce38185610ecf565b9350610cf3818560208601610f3c565b610cfc81610f6f565b840191505092915050565b6000610d1282610ec4565b610d1c8185610ee0565b9350610d2c818560208601610f3c565b610d3581610f6f565b840191505092915050565b600060a083016000830151610d586000860182610db6565b5060208301518482036020860152610d708282610cce565b9150506040830151610d856040860182610db6565b506060830151610d986060860182610db6565b506080830151610dab6080860182610cb0565b508091505092915050565b610dbf81610f23565b82525050565b610dce81610f23565b82525050565b60006020820190508181036000830152610dee8184610d40565b905092915050565b6000602082019050610e0b6000830184610dc5565b92915050565b600060a082019050610e266000830188610dc5565b8181036020830152610e388187610d07565b9050610e476040830186610dc5565b610e546060830185610dc5565b610e616080830184610cbf565b9695505050505050565b6000604051905081810181811067ffffffffffffffff82111715610e8e57600080fd5b8060405250919050565b600067ffffffffffffffff821115610eaf57600080fd5b601f19601f8301169050602081019050919050565b600081519050919050565b600082825260208201905092915050565b600082825260208201905092915050565b6000610efc82610f03565b9050919050565b600073ffffffffffffffffffffffffffffffffffffffff82169050919050565b6000819050919050565b82818337600083830152505050565b60005b83811015610f5a578082015181840152602081019050610f3f565b83811115610f69576000848401525b50505050565b6000601f19601f8301169050919050565b610f8981610ef1565b8114610f9457600080fd5b50565b610fa081610f23565b8114610fab57600080fd5b5056fea365627a7a723158209d6e076ce32f0069772bd060a1be10471ab92ea10697404b0dcd7d2ca08bdd246c6578706572696d656e74616cf564736f6c63430005100040",
  "source": "// SPDX-License-Identifier: GPL-3.0\n\npragma solidity >=0.4.17;\npragma experimental ABIEncoderV2;\n\ncontract Tax {\n    struct Payer {\n        uint256 id;\n        string name;\n        uint256 tax;\n        uint256 salary;\n        address PayerAddr;\n    }\n\n    modifier minTax() {\n        require(msg.value >= 1 wei);\n        _;\n    }\n\n    modifier isPayer() {\n        Payer memory p = payerbyaddr[msg.sender];\n        require(p.PayerAddr == msg.sender);\n        _;\n    }\n\n    mapping(uint256 => Payer) public payers;\n    mapping(address => Payer) public payerbyaddr;\n    uint256 public payerCount;\n\n    function getPayer(address _PayerAddr) public view returns (Payer memory) {\n        return payerbyaddr[_PayerAddr];\n    }\n\n    function addPayer(string memory name, uint256 _salary) public {\n        payerCount++;\n        payers[payerCount] = Payer(payerCount, name, 0, _salary, msg.sender);\n        payerbyaddr[msg.sender] = Payer(\n            payerCount,\n            name,\n            0,\n            _salary,\n            msg.sender\n        );\n    }\n\n    function payTax() public payable minTax isPayer {\n        payerbyaddr[msg.sender].tax += msg.value;\n        Payer memory temp = payerbyaddr[msg.sender];\n        payers[temp.id].tax += msg.value;\n    }\n\n    function getSummary() public view returns (uint256) {\n        return address(this).balance;\n    }\n}\n",
  "sourcePath": "/Users/akshaysp/Projects/Taxonomy/contracts/Tax.sol",
  "compiler": {
    "name": "solc",
    "version": "0.5.16+commit.9c3226ce.Emscripten.clang"
  },
  "schemaVersion": "3.4.3",
  "updatedAt": "2021-10-17T10:46:45.317Z",
  "networkType": "ethereum",
  "devdoc": {
    "methods": {}
  },
  "userdoc": {
    "methods": {}
  }
}